:100000000C949C050C945A030C94C0050C94C005E8
:100010000C94C0050C94C0050C941C040C94C005F1
:100020000C94C0050C94C0050C94C0050C94C0053C
:100030000C94C0050C94C0050C9482020C94C0056D
:100040000C94C0050C94C0050C94F3020C94B702F8
:100050000C94C0050C94DA030C9485030C94C00531
:100060000C94C0050C94C005CF93DF93CDB7DEB7D9
:10007000C059D1400FB6F894DEBF0FBECDBF0E946D
:10008000B601F12CE12C00E082E1982EA895809138
:100090005A048823C9F1809166018823A9F160EF91
:1000A00072E084EF93E00E944D0F9E012F5F3F4F5F
:1000B000690110E05901009709F06FC0112379F030
:1000C000115067EC72E0C5010E945D0F892B09F0A9
:1000D00078C0612FCE018B599F4F0E9474046DEE42
:1000E00072E080E091E00E94520F809164018C5F89
:1000F000809364011092660181E090E00E94CD0D32
:1001000010925A041092580480916701882309F4D0
:1001100041C080916804909169040E947A0A0E940B
:10012000CB107093650460936404609166047091D1
:10013000670490E080E00E94FA1020E030E048EC94
:100140005DE30E94D8110E94CB107093630460930A
:10015000620421E06B30710508F020E0822F0E94DC
:100160006A0281EF93E00E942C0B0F5F053039F497
:100170008FEFE81AF80A21E0E222FF2400E0E11400
:10018000F10409F456C031E0E316F10409F456C055
:10019000109267010E94D60679CF143009F490CFEF
:1001A0001F5F44E650E0BC01C6010E946D0F60EF86
:1001B00072E090E080E00E944D0F34E6C30ED11C47
:1001C0007ACF6BEC72E0C5010E945D0F892B39F488
:1001D000612FCE018B599F4F0E94BB0480CF6FECE3
:1001E00072E0C5010E945D0F892B39F4612FCE01A9
:1001F0008B599F4F0E94510572CF65ED72E0C5018A
:100200000E945D0F892B39F4612FCE018B599F4FCE
:100210000E94710564CF80915804882309F45FCF50
:100220006AED72E080E091E00E94660F90926401B6
:1002300056CF81EF93E00E94CA01AACF6091620479
:100240007091630480916404909165040E9421027E
:100250009FCF0F930E94E20E0E94F90641E061E0F9
:1002600085E090E00E94DC0D60E090E080E00E947C
:10027000840C60E090E080E00E94170741E062E0BB
:1002800070E090E080E00E941A0821E046E050E033
:1002900068E070E081E090E00E941E060E94CD05BB
:1002A00047E050E070E060E090E080E00E948D0B5D
:1002B00000E02BE930E050E040E070E060E090E0EA
:1002C00080E00E94030C61E086E090E00F910C94C6
:1002D000110F62E070E085EA91E00E948A0760E019
:1002E00085EA91E00E94CE0762E070E082EA91E048
:1002F0000E948A0761E082EA91E00E94CE0780E0D6
:100300000E94660681E00E94660680E00E94E40585
:100310008EE991E00E947A060E94C30A8CE991E07E
:100320000E9463098CE991E00C94020A0F931F93D9
:100330008CE991E00E94BE0962EF72E08CE991E0E5
:100340000E943D0901E010E020E030E041E050E093
:1003500060E070E08CE991E00E94CC0963E073E01A
:100360008CE991E01F910F910C943D09CF93F89483
:100370000E9429010E94690178940E949601C0E0C0
:100380000E94D606809167018111CF5FC530C1F709
:10039000CF9108950F931F93CF938C018CE991E037
:1003A0000E945509F8018281CAE06C2F0E942D0F2E
:1003B000482F60E08CE991E00E941D0AF8018281DB
:1003C0006C2F0E942D0F492F62E08CE991E00E9472
:1003D0001D0A6AE38CE991E00E942409F8018181F9
:1003E0006C2F0E942D0F482F65E08CE991E00E9450
:1003F0001D0AF80181816C2F0E942D0F492F67E0A3
:100400008CE991E00E941D0A6AE38CE991E00E9468
:100410002409F80180816C2F0E942D0F482F8CE950
:1004200091E00E941D0AF80180816C2F0E942D0F1F
:10043000492F6CE08CE991E0CF911F910F910C94C2
:100440001D0AFF920F931F93CF93DF93EC01062FAA
:10045000F72E8CE991E00E945509DF93CF9381E15B
:1004600093E09F938F931F9211E11F93CBE6D4E00B
:10047000DF93CF930E94A30FBE018CE991E00E940D
:100480003D09FF920F938CE193E09F938F931F920E
:100490001F93DF93CF930E94A30F01E010E020E0B1
:1004A00030E040E050E0BA018CE991E00E94CC09D4
:1004B0008DB79EB740960FB6F8949EBF0FBE8DBF06
:1004C000BE018CE991E0DF91CF911F910F91FF90D8
:1004D0000C943D09682F85EA91E00C94CE07EBE57A
:1004E000F4E0808372836183438381E086830C948C
:1004F0000A07EBE5F4E0808372836183438316820D
:100500000C940A071F920F920FB60F9211242F938B
:100510003F934F935F936F937F938F939F93AF938B
:10052000BF93EF93FF9380916A048F5F80936A0477
:100530008A3061F48EE991E00E94BD0661E070E0CE
:1005400090E080E00E94380C10926A04FF91EF91D5
:10055000BF91AF919F918F917F916F915F914F91DB
:100560003F912F910F900FBE0F901F9018951F92E3
:100570000F920FB60F9211242F933F934F935F93D7
:100580006F937F938F939F93AF93BF93EF93FF935B
:10059000E091650180916401E817D8F481E08E0F45
:1005A00080936501F0E0E050FF4F80810E94120EC1
:1005B000FF91EF91BF91AF919F918F917F916F913B
:1005C0005F914F913F912F910F900FBE0F901F9011
:1005D00018951092650181E08093660181E090E0BA
:1005E0000E94020EE5CF1F920F920FB60F921124B8
:1005F0002F933F934F935F936F937F938F939F932B
:10060000AF93BF93EF93FF9380915A0481111DC064
:100610000E94150EE0915804882321F08A3011F0D1
:100620008D3021F5F0E0EC50FC4F108281E080939A
:100630005A0469E170E08EE991E00E949A0661E057
:1006400070E090E080E00E94F10BFF91EF91BF918C
:10065000AF919F918F917F916F915F914F913F915A
:100660002F910F900FBE0F901F9018958830B1F406
:10067000EE2359F3E150E09358048093000190E297
:10068000909301018093020183E0809364011092B2
:10069000660181E090E00E94CD0DD7CF91E09E0FE2
:1006A00090935804F0E0EC50FC4F8083809300015D
:1006B00081E0EBCF1F920F920FB60F9211242F9370
:1006C0003F934F935F936F937F938F939F93AF93DA
:1006D000BF93EF93FF9381E0809367010E94C2056F
:1006E0008091F0030E944706FF91EF91BF91AF9177
:1006F0009F918F917F916F915F914F913F912F913A
:100700000F900FBE0F901F9018951F920F920FB66B
:100710000F9211242F933F934F935F936F937F9387
:100720008F939F93AF93BF93CF93DF93EF93FF93F9
:10073000C0915F0480915E04C817A0F580915B04AE
:1007400031E0380F90E021E02C0F40915C04509193
:100750005D04C40FD52FD11D409161044423D1F015
:1007600020935F04688130935B040E942307FF910C
:10077000EF91DF91CF91BF91AF919F918F917F9139
:100780006F915F914F913F912F910F900FBE0F90FE
:100790001F90189530935B0420935F040E942907F3
:1007A0008883E5CF10925F0481E0809360040E940B
:1007B0000C07DDCF1F920F920FB60F9211242F93CB
:1007C0003F934F935F936F937F938F939F93AF93D9
:1007D000BF93CF93DF93EF93FF930E945406EC01F6
:1007E0000E94CD052091F003822F90E02223D1F0CA
:1007F0002130E9F00196817099278093F003FF91F1
:10080000EF91DF91CF91BF91AF919F918F917F91A8
:100810006F915F914F913F912F910F900FBE0F906D
:100820001F901895D0936904C0936804E3CFD093C8
:100830006704C0936604DECF1F920F920FB60F922B
:1008400011242F933F934F935F936F937F938F93D5
:100850009F93AF93BF93EF93FF930E94A70C1F92B8
:100860008F9389E293E09F938F931F9284E68F93F7
:1008700080E091E09F938F930E94A30F80E091E02E
:100880000E94350E8DB79EB708960FB6F8949EBF9E
:100890000FBE8DBFFF91EF91BF91AF919F918F914F
:1008A0007F916F915F914F913F912F910F900FBE6C
:1008B0000F901F901895CF93DF93EC01BC0180E05F
:1008C00091E00E94660FFE0101900020E9F7319748
:1008D000EC1BFD0BE09364011092660181E090E057
:1008E000DF91CF910C94CD0DCF93DF93623030F434
:1008F00081E593E0DF91CF910C945B04EC0160E71C
:1009000073E00E945D0F892B41F581EF93E09F9387
:100910008F9382EF93E09F938F9383EF93E09F9366
:100920008F9385E793E09F938F93CC59DF4FDF93AD
:10093000CF930E94D30F81EF93E00E94FF0A2DB75F
:100940003EB7265F3F4F0FB6F8943EBF0FBE2DBF98
:10095000811106C08AE893E0CDCF87EA93E0CACF41
:1009600060E573E080E091E00E94660F1092640100
:10097000DF91CF910895CF93DF93611106C081E598
:1009800093E0DF91CF910C945B04EC0160E773E09E
:100990000E945D0F892BE1F58091F1031F928F93E7
:1009A0008091F2031F928F938091F3031F928F9394
:1009B00085E793E09F938F931F9284E68F938CE754
:1009C00094E09F938F930E94A30F8DB79EB70C96D0
:1009D0000FB6F8949EBF0FBE8DBF6EE473E080E04B
:1009E00091E00E94660F6CE774E080E091E00E9465
:1009F000520F8CE794E0FC0101900020E9F7CF0151
:100A00008D5794408E5F80936401DF91CF9108955C
:100A10006BEB73E0CE010E945D0F892BE1F48091B6
:100A200065048F93809164048F9380EC93E09F938F
:100A30008F931F9284E68F938CE794E09F938F931C
:100A40000E94A30FEDB7FEB738960FB6F894FEBF1D
:100A50000FBEEDBFC2CF67EC73E0CE010E945D0F09
:100A6000892BE1F4809163048F93809162048F93CA
:100A70008DEC93E09F938F931F9284E68F938CE786
:100A800094E09F938F930E94A30F8DB79EB7089613
:100A90000FB6F8949EBF0FBE8DBF9FCF87EA93E03D
:100AA00070CF611104C081E593E00C945B0460E7B2
:100AB00073E00E945D0F892B89F443E061EF73E0DE
:100AC00090E080E00E946F0262ED73E080E091E0D0
:100AD0000E94660F8EE080936401089587EA93E098
:100AE000E4CF611104C081E593E00C945B0460E7FE
:100AF00073E00E945D0F892B91F443E061EF73E096
:100B000090E080E00E9479020E94D60681EF93E097
:100B10000E94FF0A811106C08AE893E0E6CF87EAC7
:100B200093E0E3CF61EE73E080E091E00E94660F16
:100B30008EE080936401089544275FEF68E04FBF23
:100B40005DBF6EBF05D011D00E9434000C94A80583
:100B500013E000EFB1E0A0E0F0E3E0EE02C00590AA
:100B60000D92A017B107D9F70895112414E003EEF0
:100B7000B3E0A0EF01C01D92A017B107E1F70895FF
:100B80000C94C005E4E6F0E080818E7F8083EAE784
:100B9000F0E08081806880830895EAE7F0E080815A
:100BA0008F778083E4E6F0E0808181608083089520
:100BB000EAE7F0E08081886080830895EAE7F0E06A
:100BC0008081877F80830895ECE7F0E09081907FBB
:100BD00090839081892B80830895ECE7F0E09081E9
:100BE0009F73908390818295880F880F807C892BDA
:100BF00080830895EAE7F0E09081987F9083908168
:100C0000892B808308959C0190917B00987F90931D
:100C10007B002830310531F480917A008F7D8093FC
:100C20007A00089590917A00906290937A00909162
:100C30007B00892F822B80937B000895FF920F9376
:100C40001F93CF93DF938B01EA01F22E2091640072
:100C50002E7F209364000E94ED05FF2079F00E9412
:100C6000D805C8010E940306CE010E94FA05DF9153
:100C7000CF911F910F91FF900C94C2050E94DE0549
:100C8000F0CFEAE7F0E080818064808308950E94DD
:100C9000E4050C944106EAE7F0E0808190819061E0
:100CA0009083829581700895809178009091790069
:100CB0000895EEE7F0E0908121E030E001C0220FDE
:100CC0008A95EAF72095292320830895EEE7F0E03E
:100CD000908121E030E001C0220F8A95EAF7922B43
:100CE000908308950E9447060E944B068823E1F3F3
:100CF0000C9454060F93CF93DF93EC0147E050E040
:100D000070E060E0888199810E948D0B6A817B810F
:100D100000E030E020E041E050E0888199810E94CD
:100D2000030C70E060E088819981DF91CF910F9191
:100D30000C944C0BEF92FF920F931F93CF93DF9382
:100D4000EC018B010E94B10A7C0167E070E08881B0
:100D500099810E944C0B62E070E0C7010E948A07F3
:100D60006A817B81A80188819981DF91CF911F9150
:100D70000F91FF90EF900C94D70BCF93DF93EC0182
:100D80000E94B10A70E060E00E948A0770E060E0B3
:100D900088819981DF91CF910C944C0B83B781604E
:100DA00083BF089583B78E7F83BF089583B7816023
:100DB00083BF889583B78E7F83BF089593B7917F54
:100DC00093BF93B7880F892B83BF0895CF93C62F06
:100DD0000E94DE06CC2319F0CF910C94CE06CF9161
:100DE0000C94D20685B7806685BF85B78F7D85BF99
:100DF00008958FEE809364000E94F20690E080E0F8
:100E00000E94DE060C94CE068093640008958091C3
:100E100064000895FB9A0895FB9808959FB39F7C02
:100E20009FBB9FB38295807F892B8FBB0895CF9303
:100E3000C62F0E940E07CC2319F0CF910C940A07FD
:100E4000CF910C940C0792BD81BD60BDFA9AF99ABE
:100E5000089592BD81BDF89A80B508958FB38695A7
:100E6000817008951F93CF93DF93EC01162F0E949A
:100E70002E078111FCCF612FCE01DF91CF911F9101
:100E80000C942307EF92FF920F931F93CF93DF935E
:100E90008B01040F111DEB017C01E61AF70AC70153
:100EA0008C0F9D1FC017D10739F4DF91CF911F918F
:100EB0000F91FF90EF90089569910E943207EFCF54
:100EC000CF93DF93EC010E942E078111FCCFCE015E
:100ED000DF91CF910C942907EF92FF920F931F930C
:100EE000CF93DF938B01040F111DEB017C01E61AF8
:100EF000F70AC7018C0F9D1FC017D10739F4DF9186
:100F0000CF911F910F91FF90EF9008950E9460077D
:100F10008993EFCFFC01A081B181AA0FBB1FA2551D
:100F2000BE4F0D90BC91A02D828121E030E001C028
:100F3000220F8A95EAF78C9162307105B9F4282B5B
:100F40002C93A081B181AA0FBB1FAC54BE4F0D9052
:100F5000BC91A02D2C91328181E090E001C0880FDE
:100F60003A95EAF7809582238C930895209528235B
:100F70002C936130710529F7A081B181AA0FBB1FA5
:100F8000AC54BE4F0D90BC91A02D8C91928101C0AC
:100F9000660F9A95EAF7682B6C930895DC01ED9142
:100FA000FC911197EE0FFF1FEC54FE4F0190F08162
:100FB000E02D12962C9181E090E001C0880F2A95D7
:100FC000EAF79081662319F0892B80830895809534
:100FD0008923FBCFDC01ED91FC911197EE0FFF1FF0
:100FE000EC54FE4F0190F081E02D908112968C918F
:100FF00021E030E001C0220F8A95EAF7892F82278D
:1010000080830895DC01ED91FC911197EE0FFF1F95
:10101000E855FE4F0190F081E02D208130E01296DE
:101020008C91F90102C0F595E7958A95E2F7CF0119
:1010300081700895EF92FF920F931F93CF93DF93E8
:101040008230910500F58B01EC01642F70E07C018A
:10105000EE0CFF1CC7018C0F9D1F86549E4F0E94F3
:101060008A078091690001C0000FEA94EAF7082B13
:10107000009369008DB321E030E001C0220FCA95D2
:10108000EAF7822B8DBBDF91CF911F910F91FF90DB
:10109000EF9008959DB321E030E001C0220F8A95C2
:1010A000EAF7209529232DBB089590E0883028F099
:1010B000885091E0873008F092E08091680021E04C
:1010C00030E001C0220F9A95EAF7822B80936800E6
:1010D000089520E0883028F0885021E0873008F01B
:1010E00022E03091680081E090E001C0880F2A95ED
:1010F000EAF78095832380936800089520E0883084
:1011000030F098EF980F21E0973008F022E030E0BF
:10111000F901EE0FFF1FE054FE4F0190F081E02D2A
:10112000908143E0220F331F4A95E1F7482F421B7D
:1011300021E030E001C0220F4A95EAF7922B90831C
:101140000C94550820E0883030F098EF980F21E09B
:10115000973008F022E030E0F901EE0FFF1FE05475
:10116000FE4F0190F081E02D408153E0220F331FAC
:101170005A95E1F7821B282F81E090E001C0880F8B
:101180002A95EAF78095842380830895FC012181C4
:10119000F8E02F9F90011124622BFC0180810E94B6
:1011A000120D91E08F3F09F090E0892F08950F9381
:1011B0001F93CF938C01C62F64600E94C6088111D3
:1011C00006C0C0E08C2FCF911F910F91089581E050
:1011D00090E00E94D20E6C2F6B7FC8010E94C6085F
:1011E000C82F882371F382E390E00E94D20EEACFE9
:1011F0001F93CF93DF93EC01162F0E94C60888231C
:1012000049F0612FCE010E94D7088170DF91CF9104
:101210001F91089580E0F9CF0F931F93CF938C0116
:10122000C62F607F0E94F808882361F080E1C89F84
:10123000B0011124C8010E94F8088170CF911F915C
:101240000F91089580E0F9CF0F931F93CF938C01F6
:10125000C62F607F61600E94F808882361F06C2FC0
:101260006295607F6160C8010E94F8088170CF912B
:101270001F910F91089580E0F9CF0F931F93CF93A3
:10128000DF938C01EB016991611102C081E005C01F
:10129000C8010E9424098111F6CFDF91CF911F91DF
:1012A0000F91089560E00C94C608CF9361E00E940E
:1012B0000C09C82F882321F082E090E00E94C80E1C
:1012C0008C2FCF910895CF93DF93EC0182E390E0D0
:1012D0000E94C80E60E3CE010E94F808811105C08B
:1012E000C0E08C2FDF91CF91089584E090E10E94BF
:1012F000D20E60E3CE010E94F808882389F384E6C9
:1013000090E00E94D20E60E3CE010E94F80888238C
:1013100039F384E690E00E94D20E60E2CE010E9492
:10132000F8088823E9F284E690E00E94D20E68E291
:10133000CE010E940C09882399F285E390E00E9477
:10134000D20E6CE0CE010E940C09882349F285E39D
:1013500090E00E94D20ECE010E945509882309F424
:10136000BFCF66E0CE010E940C09C82F882309F484
:10137000B7CF85E390E00E94D20EB3CFCF9362E067
:101380000E940C09C82F882321F082E090E00E947F
:10139000C80E8C2FCF9108950F931F9360EC012BF3
:1013A000022B032B09F460E8640F60681F910F9112
:1013B0000C940C09EF92FF920F931F93CF93DF933E
:1013C0008C017A0188E0689FB00111246064C80133
:1013D0000E940C098823A1F0E70188E0E80EF11CC7
:1013E0006991C8010E942409882351F0CE15DF05B8
:1013F000B9F7DF91CF911F910F91FF90EF90089572
:1014000080E0F7CFEF92FF920F931F93CF937C0171
:101410000EEE11E0C0E0A8016C2FC7010E94DA09AE
:10142000882329F0CF5F085F1F4FC830A1F7CF9105
:101430001F910F91FF90EF900895FF920F931F93CC
:10144000CF93DF938C01F62EC42F60E86F0D606898
:101450000E940C09811108C080E08170DF91CF915A
:101460001F910F91FF90089584E0C89FE00111241F
:10147000CA53DE4F6881C8010E942409882361F3A2
:101480006981C8010E942409882331F360EC6F0D43
:101490006068C8010E940C098823F1F26A81C801C2
:1014A0000E9424098823C1F26B81C8010E9424098B
:1014B000D4CF68E10C940C096CE10C940C0968E041
:1014C0000C940C096CE00C940C090C94620A6EE00C
:1014D0000C940C090C94620A6DE00C940C0966E003
:1014E0000C940C0964E00C940C0967E00C940C0952
:1014F0000C946F0A25E0AC01249FC001259F900D3C
:101500001124BC0190E080E00E94FA1020E030E05D
:1015100040E85AE30E94D8119B01AC0160E070E5FD
:1015200083E497E40E94591020E030E44CE156E453
:101530000E94EC0F24E731E348E65DE30E94591076
:101540000E9490119B01AC0160E070E081E695E49F
:101550000E94591020E030E848E853E40E94EC0F64
:101560000895DC01ED91FC911197EE0FFF1F12968B
:101570008D919C91E80FF91FEE0FFF1FE859FE4F68
:10158000808191810895CF93DF931F92CDB7DEB70D
:10159000198221E0AE014F5F5F4F62E088E60E9452
:1015A0007E0D8F3F11F090E025C089818F7B89836C
:1015B00021E0AE014F5F5F4F62E088E60E944B0D75
:1015C0008F3F89F721E0AE014F5F5F4F6EE088E605
:1015D0000E947E0D8F3F39F78981837E898321E0C8
:1015E000AE014F5F5F4F6EE088E60E944B0D91E0C9
:1015F0008F3FC9F6892F0F90DF91CF9108950F93F8
:101600001F93CF93DF9300D01F92CDB7DEB78C012D
:10161000FC0180810E94C10E8983F80181810E94B2
:10162000C10E8A83F80182810E94C10E8B8323E060
:10163000AE014F5F5F4F60E088E60E944B0D91E086
:101640008F3F09F090E0892F0F900F900F90DF915E
:10165000CF911F910F9108951F93CF93DF93EC01CA
:1016600023E0AC0160E088E60E947E0D182F88819F
:101670000E94B80E888389810E94B80E89838A816E
:101680008F730E94B80E8A8381E01F3F09F080E0CB
:10169000DF91CF911F910895FC01EC57FD4F3081F0
:1016A0006115710539F040916400232F20952423A2
:1016B00020936400262F8230910529F06530710552
:1016C000C0F02EEF260F880F991FFC01E955FD4F42
:1016D0000190F081E02D9081987F90839081922BF2
:1016E0009083672B29F480916400832B809364009E
:1016F00008956330710538F32FEFE4CF8130910501
:1017000011F470938500880F991FFC01EF55FD4F70
:101710000190F081E02D60830895CF93DF93EC0179
:1017200090916400FE01EC57FD4F808180958923E4
:101730008093640069577D4FFB019081C130D105D2
:1017400009F096959E01220F331FF901E355FD4FD5
:10175000A081B1818C918C7F8C9329553D4FF901EB
:1017600060817181FB018081877E80832C91892F2C
:101770008370822B8C93208196959695F8E09F9F9D
:10178000C0011124822BFB018083BA01CE010E948B
:101790004C0B70E060E0CE01DF91CF910C947E0B9A
:1017A000019721F470938700609386000895660F77
:1017B000771F8130910539F4FB01E058FD4F01900E
:1017C000F081E02D508364587D4F880F991FDB0115
:1017D0002D913C91820F931FDC01ED91FC91408390
:1017E0000895880F991FFC01E157FD4F0190F0818A
:1017F000E02D808121E030E001C0220F6A95EAF7F8
:10180000822B80830895CF92DF92EF92FF920F9305
:10181000CF937C016B01C42FA9010E94D70BC29505
:10182000CD28D9F4CC0FCC0FC07C61E070E0F7017B
:10183000EE0FFF1FE355FD4F0190F081E02D8081F9
:10184000C82BC083002369F0C701CF910F91FF908F
:10185000EF90DF90CF900C94F10BC07F62E070E0CE
:10186000E6CFCF910F91FF90EF90DF90CF9008954A
:10187000880F991FFC01E157FD4F0190F081E02D89
:10188000208181E090E001C0880F6A95EAF7809599
:10189000822380830895E4E6F0E080818F7780835F
:1018A000ECEBF0E08081846080830895ECEBF0E065
:1018B00080818B7F8083E4E6F0E080818068808394
:1018C0000895ECEBF0E0808180648083089580913E
:1018D000BC00881F8827881F08958091E0048468D1
:1018E0008093BC00089581E08093E004ECEBF0E08D
:1018F00080818160808308951092E004ECEBF0E039
:1019000080818E7F80830895CF93C62F20916400BD
:101910002F77209364008D549D4FFC01808180932C
:10192000B80061E070E088EB92E00E948A0761E015
:1019300070E085EB92E00E948A07CC2329F00E9498
:10194000730CCF910C944B0C0E947C0CFACF8091BD
:10195000B900887F08958091E004846A8093BC0078
:1019600008958091E00484698093BC000895809379
:10197000BB000C946D0C8091BB0008950E94AB0CD1
:101980008091BC0087FFFCCF8091B900887F8830B0
:1019900011F0803109F48FEF08950E94B10C80910D
:1019A000BC0084FDFCCF8091B900887F883F09F49A
:1019B0008FEF08959091BC0097FFFCCF8093BB0000
:1019C0000E946D0C8091BC0087FFFCCF8091B90014
:1019D000887F883121F0803411F0883209F48FEF4C
:1019E00008950F931F93CF938C01C62F0E946D0C07
:1019F000C1110E94610C8091BC0087FFFCCF8091D7
:101A0000BB00F80180838091B900887FCC2321F04E
:101A1000803521F48FEF02C08835E1F3CF911F911B
:101A20000F910895CF93DF93D82FC62F0E94BE0C3D
:101A30008F3F79F48D2F880F0E94DA0C8F3F49F485
:101A40008C2F0E94DA0C8F3F21F4DF91CF910C9400
:101A5000CD0CDF91CF9108950F931F93CF93C82F93
:101A60008B010E94BE0C8F3F91F48C2F880F8160F8
:101A70000E94DA0C8F3F59F460E0C8010E94F10C1B
:101A80008F3F29F4CF911F910F910C94CD0CCF91E2
:101A90001F910F910895FF920F931F93CF93DF93A0
:101AA000D82FC62FF42E152F022F0E94BE0C8F3F69
:101AB000F9F48D2F880F0E94DA0C8F3FC9F48C2F18
:101AC0000E94DA0C8F3FA1F4CF2DD12F0C0F1D2FC8
:101AD000111D0C171D0739F4DF91CF911F910F9144
:101AE000FF900C94CD0C89910E94DA0C8F3F89F302
:101AF000DF91CF911F910F91FF900895CF92DF92C8
:101B0000EF92FF920F931F93CF93DF93C82FD62F9F
:101B10007A01022F0E94BE0C8F3FB1F5CC0F8C2FA3
:101B20000E94DA0C8F3F81F58D2F0E94DA0C8F3FD7
:101B300059F50E94BE0C8F3F39F58C2F81600E94B1
:101B4000DA0C8F3F09F510E0D0E0C0E0680181E0D9
:101B5000C81AD1080C171D0751F4DF91CF911F91BE
:101B60000F91FF90EF90DF90CF900C94CD0C61E03F
:101B7000CC16DD0609F460E0C7018C0F9D1F0E94A2
:101B8000F10C21968F3F31F3DF91CF911F910F918F
:101B9000FF90EF90DF90CF900895009749F0019764
:101BA00049F490E28091C100892B8093C10008958F
:101BB00090E8F8CF90E0F6CFCF93C42F2091640047
:101BC0002D7F209364002091C10028612093C100E3
:101BD000880F991FFC01E554FD4F808191819093FE
:101BE000C5008093C400662321F081E090E00E944C
:101BF000CD0DCC2329F090E080E0CF910C94CD0D59
:101C0000CF910895009751F0019751F480E290919F
:101C1000C100809589238093C100089580E8F7CFA3
:101C200080E0F5CF8093C60008958091C6000895A6
:101C30008091C000881F8827881F08958091C00068
:101C400085FB882780F90895CF93C82F0E941E0E28
:101C50008823E1F3C093C600CF9108958091C0001E
:101C600087FFFCCF8091C60008950F931F93CF93F9
:101C70008C01C0E0F801EC0FF11D8081811104C0DE
:101C8000CF911F910F9108950E94240ECF5FF2CF44
:101C90000F931F93CF93DF93D62F8C01C0E0CD1706
:101CA00039F00E942E0EF80181938F01811107C037
:101CB0008FEF8C0FDF91CF911F910F910895CF5F20
:101CC000EECFEF92FF920F931F93CF93DF937C01A0
:101CD000D62FC0E087010C0F111DCD1768F40E94AC
:101CE0002E0EF8018083982F9F7D21F08A3011F00D
:101CF0008D3071F40E94240EF8011082C111C15080
:101D00008C2FDF91CF911F910F91FF90EF9008954D
:101D1000CC2361F0883051F4C1500E94240E80E23F
:101D20000E94240E88E00E94240ED4CF0E94240E2C
:101D3000CF5FD0CF0F931F93CF93DF93FC01EB01C5
:101D4000C801821B930BBA016C1B7D0B0E94390FDB
:101D5000EC1BFD0B6E9FC0016F9F900D7E9F900D41
:101D60001124820F931FDF91CF911F910F9108953E
:101D7000982F92959F708F702AE0929F800D11246A
:101D800008956AE00E942D0F8295807F890F089543
:101D9000019708F4089520EA3FE00000215031093E
:101DA000E1F7F6CF019728F00000000000000000E6
:101DB000F9CF0895A8950895E0E6F0E08081886065
:101DC00080830895A89584B7877F84BFE0E6F0E01C
:101DD0008081877E90819861908380830895E0E67A
:101DE000F0E08081806480830895E0E6F0E0808107
:101DF0008F7B80830895A895E0E6F0E02081982FFE
:101E00009770287D922B880F880F8072892B908184
:101E1000986190838083089584B783FB882780F935
:101E200008950F931F93CF938C01C62FA8950E94FE
:101E30000C0F882319F084B7877F84BFC8010E94E4
:101E4000FB0ECC2339F00E94EF0ECF911F910F9122
:101E50000C94DC0E0E94F50EF8CF991B79E004C0BB
:101E6000991F961708F0961B881F7A95C9F78095D9
:101E70000895AA1BBB1B51E107C0AA1FBB1FA617D1
:101E8000B70710F0A61BB70B881F991F5A95A9F723
:101E900080959095BC01CD01089541EE54E00E94DB
:101EA0007C0F0895FB01DC010D900020E9F71197EC
:101EB00001900D920020E1F70895FB01DC018D9166
:101EC000019080190110D9F3990B0895FB01DC01F1
:101ED00001900D920020E1F70895FB01DC014150D3
:101EE000504048F001900D920020C9F701C01D92AA
:101EF00041505040E0F70895FA01A191B081009758
:101F000019F41097E1F0CD01DC01CD010D90002016
:101F100011F4C00113C0FB012191222319F02015F7
:101F2000D9F7F3CFFB012191201519F41E921196D8
:101F300006C02223C1F70D900020A1F7D001FA01BD
:101F4000A193B0830895AEE0B0E0E9EAFFE00C941D
:101F500001180D891E898F89988D26E02C831A839C
:101F6000098397FF02C080E090E801979E838D83EC
:101F7000AE01455E5F4F698D7A8DCE0101960E945C
:101F800045124D815E8157FD0AC02F813885421769
:101F900053070CF49A01020F131FF80110822E96BA
:101FA000E4E00C941D18AEE0B0E0E9EDFFE00C9425
:101FB000031885E08C838B899C899A838983AE0181
:101FC000495E5F4F6D897E89CE0101960E94AA15F8
:101FD0002E96E2E00C941F185058BB27AA270E94A7
:101FE00004100C944E110E94401138F00E944711C9
:101FF00020F039F49F3F19F426F40C943D110EF4AF
:10200000E095E7FB0C943711E92F0E945F1158F31C
:10201000BA17620773078407950720F079F4A6F5CD
:102020000C9481110EF4E0950B2EBA2FA02D0B010C
:10203000B90190010C01CA01A0011124FF27591B0D
:1020400099F0593F50F4503E68F11A16F040A22F13
:10205000232F342F4427585FF3CF46953795279584
:10206000A795F0405395C9F77EF41F16BA0B620B83
:10207000730B840BBAF09150A1F0FF0FBB1F661FCA
:10208000771F881FC2F70EC0BA0F621F731F841F0D
:1020900048F4879577956795B795F7959E3F08F033
:1020A000B0CF9395880F08F09927EE0F97958795F5
:1020B00008950E946D100C944E110E94471158F023
:1020C0000E94401140F029F45F3F29F00C94371131
:1020D00051110C9482110C943D110E945F1168F310
:1020E0009923B1F3552391F3951B550BBB27AA27D1
:1020F00062177307840738F09F5F5F4F220F331F0B
:10210000441FAA1FA9F335D00E2E3AF0E0E832D0D2
:1021100091505040E695001CCAF72BD0FE2F29D0D5
:10212000660F771F881FBB1F261737074807AB07A7
:10213000B0E809F0BB0B802DBF01FF2793585F4F1C
:102140003AF09E3F510578F00C9437110C948211AF
:102150005F3FE4F3983ED4F3869577956795B795FE
:10216000F7959F5FC9F7880F911D9695879597F909
:102170000895E1E0660F771F881FBB1F6217730782
:102180008407BA0720F0621B730B840BBA0BEE1F97
:1021900088F7E09508950E94671188F09F5798F09E
:1021A000B92F9927B751B0F0E1F0660F771F881F5C
:1021B000991F1AF0BA95C9F714C0B13091F00E9476
:1021C0008111B1E008950C948111672F782F882731
:1021D000B85F39F0B93FCCF3869577956795B3959D
:1021E000D9F73EF490958095709561957F4F8F4F0C
:1021F0009F4F0895E89409C097FB3EF49095809511
:10220000709561957F4F8F4F9F4F9923A9F0F92FBC
:1022100096E9BB279395F695879577956795B7953A
:10222000F111F8CFFAF4BB0F11F460FF1BC06F5F20
:102230007F4F8F4F9F4F16C0882311F096E911C032
:10224000772321F09EE8872F762F05C0662371F053
:1022500096E8862F70E060E02AF09A95660F771F67
:10226000881FDAF7880F9695879597F9089597F95B
:102270009F6780E870E060E008959FEF80EC08952C
:1022800000240A9416161706180609060895002455
:102290000A9412161306140605060895092E0394CF
:1022A000000C11F4882352F0BB0F40F4BF2B11F443
:1022B00060FF04C06F5F7F4F8F4F9F4F089557FDA2
:1022C0009058440F551F59F05F3F71F04795880FA4
:1022D00097FB991F61F09F3F79F08795089512163B
:1022E00013061406551FF2CF4695F1DF08C01616E7
:1022F00017061806991FF1CF869571056105089498
:102300000895E894BB2766277727CB0197F90895AE
:1023100016F00C94BB170C943D1168940C94371173
:102320000E946711A8F39923C1F3AEF3DF93CF9313
:102330001F930F93FF92C92FDD2788232AF021973F
:10234000660F771F881FDAF720E030E040E85FEB88
:102350009FE3883920F0803E38F021968F770E94E5
:10236000ED0FE6E8F0E304C00E94ED0FE3EBF0E3CD
:102370000E94C9178B01BE01EC01FB2E6F5771093A
:102380007595771F880B990B0E94FC1028E132E7A6
:1023900041E35FE30E94EB11AF2D9801AE01FF9086
:1023A0000F911F91CF91DF910E9404100C944E1158
:1023B0000E94EB110C944E110E94401138F00E94C3
:1023C000471120F0952311F00C9437110C943D1116
:1023D00011240C9482110E945F1170F3959FC1F338
:1023E000950F50E0551F629FF001729FBB27F00DC3
:1023F000B11D639FAA27F00DB11DAA1F649F662718
:10240000B00DA11D661F829F2227B00DA11D621F66
:10241000739FB00DA11D621F839FA00D611D221F20
:10242000749F3327A00D611D231F849F600D211D04
:10243000822F762F6A2F11249F5750409AF0F1F087
:1024400088234AF0EE0FFF1FBB1F661F771F881FF0
:1024500091505040A9F79E3F510580F00C943711E0
:102460000C9482115F3FE4F3983ED4F38695779500
:102470006795B795F795E7959F5FC1F7FE2B880F96
:10248000911D9695879597F90895ABE0B0E0EBE440
:10249000F2E10C94F3177C013B018A01FC011782E5
:1024A0001682838181FFC8C1CE0101965C01F701CC
:1024B0009381F30193FD859193FF81913F018823DF
:1024C00009F453C1853239F493FD859193FF8191CD
:1024D0003F01853229F4B70190E00E941517E7CF3C
:1024E000912C212C312CFFE1F31538F08B3211F1B6
:1024F00090F4803209F1833229F137FC3CC020EDA1
:10250000280F2A3050F536FE20C08AE0989E200D14
:102510001124922E06C08D3291F0803371F76894A9
:1025200030F8F30193FD859193FF81913F01811173
:10253000DACF21C0689431F8689432F8F2CF689409
:1025400033F8EFCF689434F8ECCFEAE02E9E200DFC
:102550001124222E689435F8E4CF8E3229F436FC0B
:1025600004C1689436F8DDCF8C3619F4689437F8D6
:10257000D8CF8836B1F2982F9F7D95549330E0F0F4
:102580008336A1F18337C1F1833509F063C0280197
:10259000F2E04F0E511CF801C080D180692D70E02F
:1025A00036FC02C06FEF7FEFC6010E94C3164C01DC
:1025B000689437F882010AC00C5F1F4FFFE3F9836C
:1025C00088248394912C6501E89437F833FE2DC05C
:1025D000522C8114910471F5552009F468CFB7018C
:1025E00080E290E00E9415175A94F6CFF80180819E
:1025F00089830E5F1F4FE4CF2801F2E04F0E511C7C
:10260000F801C080D180692D70E036FC02C06FEF08
:102610007FEFC6010E94CE164C018201D5CFB701D3
:1026200080E290E00E9415172A942814190409F0FA
:10263000B0F7CECFF60137FC859137FE81916F015F
:10264000B70190E00E94151751105A94F1E08F1ACB
:102650009108BFCF843619F0893609F077C0F801A8
:1026600037FE6BC060817181828193810C5F1F4F47
:10267000F32DFF763F2E97FF09C0909580957095BA
:1026800061957F4F8F4F9F4F689437F82AE030E075
:10269000A5010E945D17C82ECA188C2C432C36FE4B
:1026A0000CC0E89440F8C91440F434FE05C032FC74
:1026B00003C0F32DFE7E4F2E892C44FE95C0FE01F3
:1026C000EC0DF11D8081803309F087C0242D297E17
:1026D000422E842D8870582E43FC95C040FE8FC03A
:1026E0009C2C821418F42C0C922C981844FE91C047
:1026F000B70180E390E00E94151742FE09C088E709
:1027000090E041FE02C088E590E0B7010E941517F5
:10271000C91408F48AC0CA94D12C9FEFC91AD90AE7
:10272000CA0CDB1CF60182916F01B70190E00E9498
:102730001517AC14BD04B1F74FCF60817181072E1E
:10274000000C880B990B0E5F1F4F92CFD32CE8948F
:10275000D4F82AE030E0853739F1232D297FD22EB5
:102760008F3601F148F48835A9F0F7018681978109
:102770002B96E2E10C940F18803749F08837A9F7BF
:10278000D4FE02C06894D2F820E130E00DC0689415
:10279000D4F8F6CF34FE03C0822F8660D82E20E115
:1027A00032E002C028E030E0F801D7FE0FC06081BF
:1027B0007181828193810C5F1F4FA5010E945D177B
:1027C000C82ECA183D2CE89437F867CF6081718114
:1027D00090E080E00E5F1F4FF0CF42FC02C0839478
:1027E00078CF8394839475CF842D867809F471CF44
:1027F000F6CFB70180E290E00E941517839482140F
:10280000C0F3512C73CF522C5818821408F46ECF99
:10281000F8CF842D867809F47BCF8BE241FE80E2ED
:1028200047FC8DE2B70190E071CFB70180E390E003
:102830000E9415179A946CCF8FEF9FEF99CF20FDD0
:1028400009C0FC0123FD05C022FF02C0738362831F
:1028500051834083089544FD17C046FD1DC0DB0130
:10286000FC01AA0FBB1FEE1FFF1F1094D1F76A0FC8
:102870007B1F8E1F9F1F660F771F881F991F620F78
:10288000711D811D911D089533E0660F771F881F0C
:10289000991F3150D1F7F3CF34E0F7CF0F931F9347
:1028A000CF93DF938C01C8010E94D916EC0197FDEC
:1028B00008C00E94AF16892BB1F7B801CE010E9463
:1028C0004517CE01DF91CF911F910F9108958F92FF
:1028D0009F92AF92BF92EF92FF920F931F93CF936D
:1028E000DF938C01D62F7A01B22E0E94D9169C015B
:1028F00033272B32310529F02D323105A9F46894A4
:10290000B7F8D15061F480E0DF91CF911F910F9122
:10291000FF90EF90BF90AF909F908F900895C80167
:102920000E94D91697FDEFCFCB2DCD7F2B2D207395
:10293000F9F48033E9F4AA24AA94AD0E89F0C80111
:102940000E94D91697FD0CC0282F2F7D283561F4E1
:10295000C264D25029F0C8010E94D91697FF08C05E
:10296000812C912C54011BC0B6FE2BC0C260DA2D05
:10297000812C912C540120ED280F283028F1C4FD22
:1029800009C02A3008F1C6FF05C02F7D3FEE320F87
:102990003630C8F0B8010E944517C1FFB4CFC7FF59
:1029A00008C0B094A09490948094811C911CA11CA8
:1029B000B11C2C2FB501A401C7010E941F1481E096
:1029C000A3CFC261D4CF27504C2FC501B4010E94C0
:1029D0002B144B015C01C260D15009F3C8010E9465
:1029E000D91697FFC8CFD9CFA0E2B0E0EAEFF4E163
:1029F0000C94F8175C01962E7A01CE0101966C01B9
:102A000080E2F60111928A95E9F7F501B381890117
:102A100030E020E0712C812CA0E041E050E0F80192
:102A2000B3FD8591B3FF8191982F8F01811107C06C
:102A300010E000E0C801A096EDE00C9414188E356B
:102A400019F42115310541F1A21713064CF48D3507
:102A500049F18D3229F4811006C0882483941DC069
:102A6000882009F464C0E92FE695E695E695EC0D1B
:102A7000FD2DF11D892F8770BA0101C0660F8A955F
:102A8000EAF78081682B6083791651F0971510F46E
:102A90009F5FE9CF9150E7CFA1E02F5F3F4FBFCFBE
:102AA000812CFBCF882019F08E8180628E83AA232F
:102AB00059F0F6019E012F5D3F4F80818095808304
:102AC0003196E217F307C9F788248394C5010E9461
:102AD000D91697FD16C0E82FE695E695E695EC0D1C
:102AE000FD2DF11D208130E0AC014770552702C05B
:102AF000359527954A95E2F720FD06C0B5010E945D
:102B00004517882069F094CFE114F10429F0F7010A
:102B10008083C70101967C019A94812C9110D6CFB5
:102B2000E114F10409F486CFF701108283CFE82F76
:102B3000E695E695E695EC0DFD2DF11D982F977025
:102B4000BA0101C0660F9A95EAF79081692B6083FC
:102B5000782EA3CFB0E0A0E0E0EBF5E10C94F617FF
:102B60006C01EB015A01FC0117821682512CF6010F
:102B7000E380FE01E3FC8591E3FE8191182FEF01D4
:102B80008823E9F090E00E94AF16892B21F0C6015E
:102B90000E944E14ECCF153241F4FE01E3FC159176
:102BA000E3FE1191EF01153269F4C6010E94D916B6
:102BB00097FD8EC01817D9F2B6010E944517852DD2
:102BC00090E08AC000E01A3231F4E3FC1591E3FE94
:102BD0001191EF0101E0F12C20ED210F2A3048F195
:102BE00001FF37C0FF2059F31836B1F11C3609F444
:102BF0003DC0112321F3612F70E084E590E30E9432
:102C0000B816892BE1F2912C812C00FD06C0F5014C
:102C100080809180C50102965C011E3679F5F6012F
:102C20004681578170E060E0202FC4010E941F148C
:102C30009ECF02606F2D70E090E080E040E20E9445
:102C40002B14F62EFE01E3FC1591E3FE1191EF012A
:102C5000C3CFFF24FA94C8CFFE01E3FC1591E3FE35
:102C60001191EF01183609F0C4CF08600460FE012D
:102C7000E3FC1591E3FE1191EF01BBCF1336C1F4D4
:102C800001FD02C0FF24F394C6010E94D91697FDEE
:102C90001FC08114910429F0F4018083C4010196BE
:102CA0004C01FA94F110F0CF00FD61CF53945FCF47
:102CB0001B35B9F49E01A4016F2DC6010E94F414C6
:102CC000EC01892B89F7F6018381807309F477CFB2
:102CD0008FEF9FEF511073CFCDB7DEB7EFE00C94BD
:102CE0001218C6010E944E1497FDF2CF1F36A9F1AB
:102CF00030F4143641F0193639F0006405C013374A
:102D0000B9F01537D1F70062202FA4016F2DC6014D
:102D10000E9467148111C8CFD6CF8114910429F085
:102D2000F4016082C40101964C01FA94FF2071F015
:102D3000C6010E94D9163C0197FD08C00E94AF163B
:102D4000892B59F3B601C3010E94451781149104E0
:102D500009F4AACFF4011082A7CF0061D5CF911159
:102D60000C94F017803219F089508550C8F70895F7
:102D7000FC010590061621F00020D9F7C001089546
:102D80003197CF010895FC0105906150704001100A
:102D9000D8F7809590958E0F9F1F0895FC01615084
:102DA000704001900110D8F7809590958E0F9F1F6D
:102DB0000895CF93DF93EC012B8120FF1AC026FFEB
:102DC0000CC02F7B2B838E819F8101969F838E83E6
:102DD0008A8190E0DF91CF91089522FF18C0E881A9
:102DE000F9818081082E000C990B009729F420624C
:102DF0002B838FEF9FEFEECF3196F983E8832E81FF
:102E00003F812F5F3F4F3F832E839927E3CFEA8592
:102E1000FB85099597FFF3CF2B81019621F080E286
:102E2000822B8B83E6CF80E1FBCF0F931F93CF9351
:102E3000DF93182F092FEB018B8181FD09C01FEF54
:102E40000FEF812F902FDF91CF911F910F91089558
:102E500082FF14C02E813F818C819D812817390704
:102E60003CF4E881F981CF0101969983888310832E
:102E70008E819F8101969F838E83E3CFE885F985BC
:102E8000812F0995892BA1F3DACFFB01238120FF44
:102E900011C026FD0FC08F3F980771F082832F7DF0
:102EA000206423832681378121503109378326838B
:102EB000992708958FEF9FEF0895FA01AA272830E8
:102EC00051F1203181F1E8946F936E7F6E5F7F4FF7
:102ED0008F4F9F4FAF4FB1E03ED0B4E03CD0670F73
:102EE000781F891F9A1FA11D680F791F8A1F911DC6
:102EF000A11D6A0F711D811D911DA11D20D009F416
:102F000068943F912AE0269F11243019305D319357
:102F1000DEF6CF010895462F4770405D4193B3E040
:102F20000FD0C9F7F6CF462F4F70405D4A3318F0E7
:102F3000495D31FD4052419302D0A9F7EACFB4E098
:102F4000A6959795879577956795BA95C9F7009750
:102F50006105710508959B01AC010A2E06945795F1
:102F6000479537952795BA95C9F7620F731F841F48
:102F7000951FA01D08959F3F31F0915020F4879533
:102F800077956795B795880F911D9695879597F9D1
:102F90000895DF93CF931F930F93FF92EF92DF92E9
:102FA0007B018C01689406C0DA2EEF010E94EB11C0
:102FB000FE01E894A5912591359145915591A6F38F
:102FC000EF010E940410FE019701A801DA9469F74D
:102FD000DF90EF90FF900F911F91CF91DF910895B7
:102FE0009927882708952F923F924F925F926F9270
:102FF0007F928F929F92AF92BF92CF92DF92EF9289
:10300000FF920F931F93CF93DF93CDB7DEB7CA1B09
:10301000DB0B0FB6F894DEBF0FBECDBF09942A8834
:10302000398848885F846E847D848C849B84AA84DC
:10303000B984C884DF80EE80FD800C811B81AA8169
:10304000B981CE0FD11D0FB6F894DEBF0FBECDBF34
:10305000ED0108956364696E6F70737578585B0055
:1030600013E0A0E0B1E0E0EEF0E302C005900D92C5
:10307000A03FB107D9F724E0A0EFB3E001C01D9253
:06308000A33EB207E1F7D8
:1030860008000000BE922449123EABAAAA2ABECD71
:10309600CCCC4C3E00000080BEABAAAAAA3E0000E3
:1030A6000000BF000000803F0000000000084178DB
:1030B600D3BB4387D1133D190E3CC3BD4282AD2B12
:1030C6003E68EC8276BED98FE1A93E4C80EFFFBE0A
:0A30D60001C4FF7F3F00000000006E
:1030E0000A0D41565220425350205465726D696E4C
:1030F000616C0A0D0A0D4350553A2041546D6567C5
:1031000061333238500A0D436C6F636B3A203136AD
:103110004D487A0A0D466C6173683A2033324B424F
:103120000A0D5352414D3A20324B420A0D4545504B
:10313000524F4D3A20314B420A0D0A0D3E200000FD
:10314000000000005E0000013D023A023702340236
:1031500031022E0279027602730270026D026A0257
:103160006702640261025E025B025802550252026B
:103170004F024C024902460243024002270102006C
:10318000010000000502000623002600290024009B
:1031900027002A00250028002B000200020200035D
:1031A0006B006C006D0001024C00207C207C04054B
:1031B0004C5F06055F004C00200307045F00070416
:1031C0004C000602200307054C00070520030101FF
:1031D000010101011F001F101010101010001F012D
:1031E00001010101010001010101010101001F00B4
:1031F000000000001F001F01010101011F001F004E
:103200000000000000001F10101010101F0002002E
:103210000300000300000200000102000502000696
:103220000100050100040100030100020100010189
:103230000000000005000004000003000002000080
:10324000010000000200070200060200050200045F
:103250000200030200020200010200009B0295022C
:1032600089008B00200840040E3500360037006EC0
:10327000006F00700048008A00B30047008800B467
:103280000046008400B20045008100B10044008087
:1032900000B000480C010005010004A001CF006748
:1032A00000330019000800736574006765740073CB
:1032B000746F7265006C6F6164000A0D496E76610F
:1032C0006C696420636F6D6D616E642E000A0D3E43
:1032D0002000436F6E74726F6C205465726D696E5E
:1032E000616C0056657273696F6E20312E302E301E
:1032F0000054656D703A2025642043004C6967686E
:10330000743A202533642525000A0D54696D652D16
:103310006F7574207265736574210A0D54574920C6
:103320005374617475733A203078253032580A0D21
:10333000000A0D496E76616C6964206E756D626578
:1033400072206F6620617267756D656E74732100FF
:1033500074696D65002530326868643A25303268DA
:1033600068643A253032686864000A0D525443207C
:10337000686173206265656E20646973636F6E6E49
:1033800065637465642E000A0D496E76616C69642C
:10339000207661726961626C65210074656D7000F0
:1033A000256420C2BA43006C6967687400256425EF
:1033B00025000A0D54696D652073746F7265642E63
:1033C000000A0D54696D65206C6F616465642E00A0
:0400000300000B38B6
:00000001FF
