:100000000C949C050C945A030C94C0050C94C005E8
:100010000C94C0050C94C0050C941C040C94C005F1
:100020000C94C0050C94C0050C94C0050C94C0053C
:100030000C94C0050C94C0050C9482020C94C0056D
:100040000C94C0050C94C0050C94F3020C94B702F8
:100050000C94C0050C94DA030C9485030C94C00531
:100060000C94C0050C94C005CF93DF93CDB7DEB7D9
:10007000C059D1400FB6F894DEBF0FBECDBF0E946D
:10008000B601F12CE12C00E082E1982EA895809138
:1000900011048823C9F1809166018823A9F167EAD8
:1000A00072E08BEA93E00E94340F9E012F5F3F4F76
:1000B000690110E05901009709F06FC0112379F030
:1000C00011506EE772E0C5010E94440F892B09F0C0
:1000D00078C0612FCE018B599F4F0E94740464EA4F
:1000E00072E080E091E00E94390F809164018C5FA2
:1000F000809364011092660181E090E00E94B40D4B
:100100001092110410920F0480916701882309F462
:1001100041C080911F04909120040E94730A0E94A4
:10012000B21070931C0460931B0460911D047091C5
:100130001E0490E080E00E94E11020E030E048ECF6
:100140005DE30E94BF110E94B21070931A04609385
:10015000190421E06B30710508F020E0822F0E9425
:100160006A0288EA93E00E94130B0F5F053039F4AE
:100170008FEFE81AF80A21E0E222FF2400E0E11400
:10018000F10409F456C031E0E316F10409F456C055
:10019000109267010E94CF0679CF143009F490CFF6
:1001A0001F5F44E650E0BC01C6010E94540F67EA9D
:1001B00072E090E080E00E94340F34E6C30ED11C60
:1001C0007ACF62E872E0C5010E94440F892B39F4AE
:1001D000612FCE018B599F4F0E94BB0480CF66E8F0
:1001E00072E0C5010E94440F892B39F4612FCE01C2
:1001F0008B599F4F0E94510572CF6CE872E0C50188
:100200000E94440F892B39F4612FCE018B599F4FE7
:100210000E94710564CF80910F04882309F45FCF99
:1002200061E972E080E091E00E944D0F90926401DC
:1002300056CF88EA93E00E94CA01AACF60911904C0
:1002400070911A0480911B0490911C040E94210259
:100250009FCF0F930E94C90E0E94F20641E061E019
:1002600085E090E00E94C30D60E090E080E00E9495
:100270006B0C60E090E080E00E94100741E062E0DB
:1002800070E090E080E00E94130821E046E050E03A
:1002900068E070E081E090E00E941E060E94CD05BB
:1002A00047E050E070E060E090E080E00E94740B76
:1002B00000E02BE930E050E040E070E060E090E0EA
:1002C00080E00E94EA0B61E086E090E00F910C94E0
:1002D000F80E62E070E089E092E00E94830760E03F
:1002E00089E092E00E94C70762E070E08EE192E050
:1002F0000E94830761E08EE192E00E94C70780E0E0
:100300000E94660681E00E94660680E00E94E40585
:100310008AE691E00E947A060E94AA0A88E691E0A5
:100320000E945C0988E691E00C94FB090F931F93EF
:1003300088E691E00E94B70969EA72E088E691E0F8
:100340000E94360901E010E020E030E041E050E09A
:1003500060E070E088E691E00E94C5096AEB72E017
:1003600088E691E01F910F910C943609CF93F89491
:100370000E9429010E94690178940E949601C0E0C0
:100380000E94CF06809167018111CF5FC330C1F712
:10039000CF9108950F931F93CF938C0188E691E03E
:1003A0000E944E09F8018281CAE06C2F0E94140F4E
:1003B000482F60E088E691E00E94160AF8018281E9
:1003C0006C2F0E94140F492F62E088E691E00E9492
:1003D000160A6AE388E691E00E941D09F80181810E
:1003E0006C2F0E94140F482F65E088E691E00E9470
:1003F000160AF80181816C2F0E94140F492F67E0C3
:1004000088E691E00E94160A6AE388E691E00E947D
:100410001D09F80180816C2F0E94140F482F88E677
:1004200091E00E94160AF80180816C2F0E94140F3F
:10043000492F6CE088E691E0CF911F910F910C94C9
:10044000160AFF920F931F93CF93DF93EC01062FB1
:10045000F72E88E691E00E944E09DF93CF9388EC57
:1004600092E09F938F931F9211E11F93C2E2D4E019
:10047000DF93CF930E948A0FBE0188E691E00E942D
:100480003609FF920F9383ED92E09F938F931F9213
:100490001F93DF93CF930E948A0F01E010E020E0CA
:1004A00030E040E050E0BA0188E691E00E94C509E2
:1004B0008DB79EB740960FB6F8949EBF0FBE8DBF06
:1004C000BE0188E691E0DF91CF911F910F91FF90DF
:1004D0000C943609682F89E092E00C94C707E2E19A
:1004E000F4E0808372836183438381E086830C948C
:1004F0000307E2E1F4E08083728361834383168221
:100500000C9403071F920F920FB60F9211242F9392
:100510003F934F935F936F937F938F939F93AF938B
:10052000BF93EF93FF93809121048F5F8093210409
:100530008A3061F48AE691E00E94B70661E070E0DB
:1005400090E080E00E941F0C10922104FF91EF9137
:10055000BF91AF919F918F917F916F915F914F91DB
:100560003F912F910F900FBE0F901F9018951F92E3
:100570000F920FB60F9211242F933F934F935F93D7
:100580006F937F938F939F93AF93BF93EF93FF935B
:10059000E091650180916401E817D8F481E08E0F45
:1005A00080936501F0E0E050FF4F80810E94F90DDB
:1005B000FF91EF91BF91AF919F918F917F916F913B
:1005C0005F914F913F912F910F900FBE0F901F9011
:1005D00018951092650181E08093660181E090E0BA
:1005E0000E94E90DE5CF1F920F920FB60F921124D2
:1005F0002F933F934F935F936F937F938F939F932B
:10060000AF93BF93EF93FF938091110481111DC0AD
:100610000E94FC0DE0910F04882321F08A3011F034
:100620008D3021F5F0E0E555FC4F108281E080939C
:10063000110469E170E08AE691E00E949A0661E0A7
:1006400070E090E080E00E94D80BFF91EF91BF91A5
:10065000AF919F918F917F916F915F914F913F915A
:100660002F910F900FBE0F901F9018958830B1F406
:10067000EE2359F3E150E0930F048093000190E2E0
:10068000909301018093020183E0809364011092B2
:10069000660181E090E00E94B40DD7CF91E09E0FFB
:1006A00090930F04F0E0E555FC4F808380930001A8
:1006B00081E0EBCF1F920F920FB60F9211242F9370
:1006C0003F934F935F936F937F938F939F93AF93DA
:1006D000BF93EF93FF9381E0809367010E94C2056F
:1006E0008091A7030E944706FF91EF91BF91AF91C0
:1006F0009F918F917F916F915F914F913F912F913A
:100700000F900FBE0F901F9018951F920F920FB66B
:100710000F9211242F933F934F935F936F937F9387
:100720008F939F93AF93BF93CF93DF93EF93FF93F9
:10073000C091160480911504C817A0F58091120489
:1007400031E0380F90E021E02C0F409113045091DC
:100750001404C40FD52FD11D409118044423D1F0A7
:10076000209316046881309312040E941C07FF91A5
:10077000EF91DF91CF91BF91AF919F918F917F9139
:100780006F915F914F913F912F910F900FBE0F90FE
:100790001F90189530931204209316040E9422078C
:1007A0008883E5CF1092160481E0809317040E949D
:1007B0000507DDCF1F920F920FB60F9211242F93D2
:1007C0003F934F935F936F937F938F939F93AF93D9
:1007D000BF93CF93DF93EF93FF930E945406EC01F6
:1007E0000E94CD052091A703822F90E02223D1F013
:1007F0002130E9F00196817099278093A703FF913A
:10080000EF91DF91CF91BF91AF919F918F917F91A8
:100810006F915F914F913F912F910F900FBE0F906D
:100820001F901895D0932004C0931F04E3CFD0935A
:100830001E04C0931D04DECF1F920F920FB60F92BD
:1008400011242F933F934F935F936F937F938F93D5
:100850009F93AF93BF93EF93FF930E948E0C1F92D1
:100860008F9380EE92E09F938F931F9284E68F93F5
:1008700080E091E09F938F930E948A0F80E091E047
:100880000E941C0E8DB79EB708960FB6F8949EBFB7
:100890000FBE8DBFFF91EF91BF91AF919F918F914F
:1008A0007F916F915F914F913F912F910F900FBE6C
:1008B0000F901F901895CF93DF93EC01BC0180E05F
:1008C00091E00E944D0FFE0101900020E9F7319761
:1008D000EC1BFD0BE09364011092660181E090E057
:1008E000DF91CF910C94B40DCF93DF93623030F44D
:1008F00088E093E0DF91CF910C945B04EC0167E218
:1009000073E00E94440F892B41F588EA93E09F939E
:100910008F9389EA93E09F938F938AEA93E09F9362
:100920008F938CE293E09F938F93CC59DF4FDF93AB
:10093000CF930E94BA0F88EA93E00E94E60A2DB78F
:100940003EB7265F3F4F0FB6F8943EBF0FBE2DBF98
:10095000811106C081E493E0CDCF8EE593E0CACF4C
:1009600067E073E080E091E00E944D0F1092640117
:10097000DF91CF910895CF93DF93611106C088E096
:1009800093E0DF91CF910C945B04EC0167E273E09C
:100990000E94440F892BE1F58091A8031F928F9349
:1009A0008091A9031F928F938091AA031F928F9326
:1009B0008CE293E09F938F931F9284E68F9383E35F
:1009C00094E09F938F930E948A0F8DB79EB70C96E9
:1009D0000FB6F8949EBF0FBE8DBF65E073E080E058
:1009E00091E00E944D0F63E374E080E091E00E948B
:1009F000390F83E394E0FC0101900020E9F7CF0177
:100A0000845394408E5F80936401DF91CF91089569
:100A100062E773E0CE010E94440F892BE1F48091DC
:100A20001C048F9380911B048F9387E793E09F931F
:100A30008F931F9284E68F9383E394E09F938F9329
:100A40000E948A0FEDB7FEB738960FB6F894FEBF36
:100A50000FBEEDBFC2CF6EE773E0CE010E94440F20
:100A6000892BE1F480911A048F93809119048F935C
:100A700084E893E09F938F931F9284E68F9383E3A0
:100A800094E09F938F930E948A0F8DB79EB708962C
:100A90000FB6F8949EBF0FBE8DBF9FCF8EE593E03B
:100AA00070CF611104C088E093E00C945B0467E2AE
:100AB00073E00E94440F892B89F443E068EA73E0F5
:100AC00090E080E00E946F0269E873E080E091E0CE
:100AD0000E944D0F8EE08093640108958EE593E0AF
:100AE000E4CF611104C088E093E00C945B0467E2FA
:100AF00073E00E94440F892B91F443E068EA73E0AD
:100B000090E080E00E9479020E94CF0688EA93E09C
:100B10000E94E60A811106C081E493E0E6CF8EE5EB
:100B200093E0E3CF68E973E080E091E00E944D0F2D
:100B30008EE080936401089544275FEF68E04FBF23
:100B40005DBF6EBF05D011D00E9434000C94A80583
:100B500013E007EAB1E0A0E0F0E3EEEA02C005909E
:100B60000D92A017B107D9F70895112414E00AE9EE
:100B7000B3E0A7EA01C01D92A017B107E1F70895FD
:100B80000C94C005E4E6F0E080818E7F8083EAE784
:100B9000F0E08081806880830895EAE7F0E080815A
:100BA0008F778083E4E6F0E0808181608083089520
:100BB000EAE7F0E08081886080830895EAE7F0E06A
:100BC0008081877F80830895ECE7F0E09081907FBB
:100BD00090839081892B80830895ECE7F0E09081E9
:100BE0009F73908390818295880F880F807C892BDA
:100BF00080830895EAE7F0E09081987F9083908168
:100C0000892B808308959C0190917B00987F90931D
:100C10007B002830310531F480917A008F7D8093FC
:100C20007A00089590917A00906290937A00909162
:100C30007B00892F822B80937B000895FF920F9376
:100C40001F93CF93DF938B01EA01F22E2091640072
:100C50002E7F209364000E94ED05FF2079F00E9412
:100C6000D805C8010E940306CE010E94FA05DF9153
:100C7000CF911F910F91FF900C94C2050E94DE0549
:100C8000F0CFEAE7F0E080818064808308950E94DD
:100C9000E4050C944106EAE7F0E0808190819061E0
:100CA0009083829581700895809178009091790069
:100CB0000895EEE7F0E0908121E030E001C0220FDE
:100CC0008A95EAF72095292320830895EEE7F0E03E
:100CD000908121E030E001C0220F8A95EAF7922B43
:100CE000908308950E9447060E944B068823E1F3F3
:100CF0000C9454060F93CF93DF93EC0147E050E040
:100D000070E060E0888199810E94740B6A817B8128
:100D100000E030E020E041E050E0888199810E94CD
:100D2000EA0B70E060E088819981DF91CF910F91AB
:100D30000C94330B0F931F93CF93DF93EC018B0134
:100D400067E070E0888199810E94330B62E070E077
:100D5000CE0104960E9483076A817B81A801888165
:100D60009981DF91CF911F910F910C94BE0BCF937E
:100D7000DF93EC0170E060E004960E94830770E06E
:100D800060E088819981DF91CF910C94330B83B718
:100D9000816083BF089583B78E7F83BF089583B733
:100DA000816083BF889583B78E7F83BF089593B793
:100DB000917F93BF93B7880F892B83BF0895CF93FB
:100DC000C62F0E94D706CC2319F0CF910C94C706EA
:100DD000CF910C94CB0685B7806685BF85B78F7D94
:100DE00085BF08958FEE809364000E94EB0690E02B
:100DF00080E00E94D7060C94C70680936400089593
:100E0000809164000895FB9A0895FB9808959FB31C
:100E10009F7C9FBB9FB38295807F892B8FBB08955A
:100E2000CF93C62F0E940707CC2319F0CF910C94C3
:100E30000307CF910C94050792BD81BD60BDFA9A5E
:100E4000F99A089592BD81BDF89A80B508958FB33F
:100E50008695817008951F93CF93DF93EC01162F31
:100E60000E9427078111FCCF612FCE01DF91CF9126
:100E70001F910C941C07EF92FF920F931F93CF9337
:100E8000DF938B01040F111DEB017C01E61AF70AB9
:100E9000C7018C0F9D1FC017D10739F4DF91CF9187
:100EA0001F910F91FF90EF90089569910E942B0779
:100EB000EFCFCF93DF93EC010E9427078111FCCF86
:100EC000CE01DF91CF910C942207EF92FF920F9306
:100ED0001F93CF93DF938B01040F111DEB017C0156
:100EE000E61AF70AC7018C0F9D1FC017D10739F406
:100EF000DF91CF911F910F91FF90EF9008950E9485
:100F000059078993EFCFFC01A081B181AA0FBB1FC4
:100F1000A958BE4F0D90BC91A02D828121E030E0F8
:100F200001C0220F8A95EAF78C9162307105B9F4FD
:100F3000282B2C93A081B181AA0FBB1FA358BE4FB1
:100F40000D90BC91A02D2C91328181E090E001C0E8
:100F5000880F3A95EAF7809582238C93089520951F
:100F600028232C936130710529F7A081B181AA0F44
:100F7000BB1FA358BE4F0D90BC91A02D8C919281A8
:100F800001C0660F9A95EAF7682B6C930895DC010F
:100F9000ED91FC911197EE0FFF1FE358FE4F01906A
:100FA000F081E02D12962C9181E090E001C0880F35
:100FB0002A95EAF79081662319F0892B808308959A
:100FC00080958923FBCFDC01ED91FC911197EE0F09
:100FD000FF1FE358FE4F0190F081E02D90811296A3
:100FE0008C9121E030E001C0220F8A95EAF7892F29
:100FF000822780830895DC01ED91FC911197EE0F1B
:10100000FF1FEF58FE4F0190F081E02D208130E06E
:1010100012968C91F90102C0F595E7958A95E2F751
:10102000CF0181700895EF92FF920F931F93CF939A
:10103000DF938230910500F58B01EC01642F70E0A5
:101040007C01EE0CFF1CC7018C0F9D1F8D579E4F1E
:101050000E9483078091690001C0000FEA94EAF7BB
:10106000082B009369008DB321E030E001C0220F0E
:10107000CA95EAF7822B8DBBDF91CF911F910F911B
:10108000FF90EF9008959DB321E030E001C0220F62
:101090008A95EAF7209529232DBB089590E08830A2
:1010A00028F0885091E0873008F092E08091680045
:1010B00021E030E001C0220F9A95EAF7822B80935D
:1010C0006800089520E0883028F0885021E08730BB
:1010D00008F022E03091680081E090E001C0880FC4
:1010E0002A95EAF78095832380936800089520E08D
:1010F000883030F098EF980F21E0973008F022E028
:1011000030E0F901EE0FFF1FE757FE4F0190F0812D
:10111000E02D908143E0220F331F4A95E1F7482FDD
:10112000421B21E030E001C0220F4A95EAF7922BE2
:1011300090830C944E0820E0883030F098EF980FA0
:1011400021E0973008F022E030E0F901EE0FFF1FB8
:10115000E757FE4F0190F081E02D408153E0220FD0
:10116000331F5A95E1F7821B282F81E090E001C0E0
:10117000880F2A95EAF78095842380830895FC01DF
:101180002181F8E02F9F90011124622BFC018081C6
:101190000E94F90C91E08F3F09F090E0892F0895AB
:1011A0000F931F93CF938C01C62F64600E94BF08DA
:1011B000811106C0C0E08C2FCF911F910F9108952F
:1011C00081E090E00E94B90E6C2F6B7FC8010E94F5
:1011D000BF08C82F882371F382E390E00E94B90E04
:1011E000EACF1F93CF93DF93EC01162F0E94BF0825
:1011F000882349F0612FCE010E94D0088170DF91D1
:10120000CF911F91089580E0F9CF0F931F93CF9353
:101210008C01C62F607F0E94F108882361F080E175
:10122000C89FB0011124C8010E94F1088170CF91BC
:101230001F910F91089580E0F9CF0F931F93CF93E3
:101240008C01C62F607F61600E94F108882361F0E5
:101250006C2F6295607F6160C8010E94F108817007
:10126000CF911F910F91089580E0F9CF0F931F93B5
:10127000CF93DF938C01EB016991611102C081E092
:1012800005C0C8010E941D098111F6CFDF91CF91E1
:101290001F910F91089560E00C94BF08CF9361E017
:1012A0000E940509C82F882321F082E090E00E9467
:1012B000AF0E8C2FCF910895CF93DF93EC0182E393
:1012C00090E00E94AF0E60E3CE010E94F108811110
:1012D00005C0C0E08C2FDF91CF91089584E090E1AC
:1012E0000E94B90E60E3CE010E94F108882389F3C1
:1012F00084E690E00E94B90E60E3CE010E94F108FE
:10130000882339F384E690E00E94B90E60E2CE01B2
:101310000E94F1088823E9F284E690E00E94B90E69
:1013200068E2CE010E940509882399F285E390E0E6
:101330000E94B90E6CE0CE010E940509882349F293
:1013400085E390E00E94B90ECE010E944E098823E9
:1013500009F4BFCF66E0CE010E940509C82F88239B
:1013600009F4B7CF85E390E00E94B90EB3CFCF93D5
:1013700062E00E940509C82F882321F082E090E0F6
:101380000E94AF0E8C2FCF9108950F931F9360ECA6
:10139000012B022B032B09F460E8640F60681F9196
:1013A0000F910C940509EF92FF920F931F93CF9327
:1013B000DF938C017A0188E0689FB001112460649A
:1013C000C8010E9405098823A1F0E70188E0E80E22
:1013D000F11C6991C8010E941D09882351F0CE15A6
:1013E000DF05B9F7DF91CF911F910F91FF90EF903B
:1013F000089580E0F7CFEF92FF920F931F93CF9362
:101400007C0107EB11E0C0E0A8016C2FC7010E942E
:10141000D309882329F0CF5F085F1F4FC830A1F799
:10142000CF911F910F91FF90EF900895FF920F932E
:101430001F93CF93DF938C01F62EC42F60E86F0DBE
:1014400060680E940509811108C080E08170DF9109
:10145000CF911F910F91FF90089584E0C89FE00104
:101460001124C157DE4F6881C8010E941D098823DD
:1014700061F36981C8010E941D09882331F360EC82
:101480006F0D6068C8010E9405098823F1F26A8126
:10149000C8010E941D098823C1F26B81C8010E9406
:1014A0001D09D4CF68E10C9405096CE10C94050981
:1014B00068E00C9405096CE00C9405090C945B0A37
:1014C0006EE00C9405090C945B0A6DE00C94050920
:1014D00066E00C94050964E00C94050967E00C943F
:1014E00005090C94680A25E0AC01249FC001259FE2
:1014F000900D1124BC0190E080E00E94E11020E0FA
:1015000030E040E85AE30E94BF119B01AC0160E06B
:1015100070E583E497E40E94401020E030E44CE161
:1015200056E40E94D30F24E731E348E65DE30E94CE
:1015300040100E9477119B01AC0160E070E081E6F1
:1015400095E40E94401020E030E848E853E40E940F
:10155000D30F0895CF93DF931F92CDB7DEB71982D3
:1015600021E0AE014F5F5F4F62E088E60E94650DAB
:101570008F3F11F090E025C089818F7B898321E026
:10158000AE014F5F5F4F62E088E60E94320D8F3FF1
:1015900089F721E0AE014F5F5F4F6EE088E60E9461
:1015A000650D8F3F39F78981837E898321E0AE0104
:1015B0004F5F5F4F6EE088E60E94320D91E08F3FF3
:1015C000C9F6892F0F90DF91CF9108950F931F9344
:1015D000CF93DF9300D01F92CDB7DEB78C01FC0113
:1015E00080810E94A80E8983F80181810E94A80E43
:1015F0008A83F80182810E94A80E8B8323E0AE01CA
:101600004F5F5F4F60E088E60E94320D91E08F3FB0
:1016100009F090E0892F0F900F900F90DF91CF91FC
:101620001F910F9108951F93CF93DF93EC0123E057
:10163000AC0160E088E60E94650D182F88810E9449
:101640009F0E888389810E949F0E89838A818F7370
:101650000E949F0E8A8381E01F3F09F080E0DF91A6
:10166000CF911F910895FC01E55CFD4F308161151C
:10167000710539F040916400232F20952423209395
:101680006400262F8230910529F065307105C0F085
:101690002EEF260F880F991FFC01E25AFD4F019093
:1016A000F081E02D9081987F90839081922B9083A0
:1016B000672B29F480916400832B80936400089544
:1016C0006330710538F32FEFE4CF8130910511F4C9
:1016D00070938500880F991FFC01E85AFD4F019017
:1016E000F081E02D60830895CF93DF93EC0190911A
:1016F0006400FE01E55CFD4F808180958923809325
:101700006400625C7D4FFB019081C130D10509F01E
:1017100096959E01220F331FF901EC59FD4FA081D0
:10172000B1818C918C7F8C93225A3D4FF90160815D
:101730007181FB018081877E80832C91892F83704A
:10174000822B8C93208196959695F8E09F9FC001FF
:101750001124822BFB018083BA01CE010E94330B3E
:1017600070E060E0CE01DF91CF910C94650B0197A2
:1017700021F470938700609386000895660F771FA9
:101780008130910539F4FB01E95CFD4F0190F08156
:10179000E02D50836D5C7D4F880F991FDB012D91EB
:1017A0003C91820F931FDC01ED91FC9140830895E1
:1017B000880F991FFC01EA5BFD4F0190F081E02D3D
:1017C000808121E030E001C0220F6A95EAF7822B88
:1017D00080830895CF92DF92EF92FF920F93CF9381
:1017E0007C016B01C42FA9010E94BE0BC295CD28BC
:1017F000D9F4CC0FCC0FC07C61E070E0F701EE0FA4
:10180000FF1FEC59FD4F0190F081E02D8081C82B26
:10181000C083002369F0C701CF910F91FF90EF9033
:10182000DF90CF900C94D80BC07F62E070E0E6CFE1
:10183000CF910F91FF90EF90DF90CF900895880F98
:10184000991FFC01EA5BFD4F0190F081E02D2081A2
:1018500081E090E001C0880F6A95EAF780958223C5
:1018600080830895E4E6F0E080818F778083ECEB5D
:10187000F0E08081846080830895ECEBF0E080816B
:101880008B7F8083E4E6F0E0808180688083089528
:10189000ECEBF0E080818064808308958091BC004F
:1018A000881F8827881F08958091970484688093F3
:1018B000BC00089581E080939704ECEBF0E0808118
:1018C00081608083089510929704ECEBF0E08081B2
:1018D0008E7F80830895CF93C62F209164002F7749
:1018E0002093640086599D4FFC0180818093B8004D
:1018F00061E070E08FE692E00E94830761E070E0B3
:101900008CE692E00E948307CC2329F00E945A0CB7
:10191000CF910C94320C0E94630CFACF8091B900E5
:10192000887F089580919704846A8093BC0008950D
:101930008091970484698093BC0008958093BB00D4
:101940000C94540C8091BB0008950E94920C8091DD
:10195000BC0087FFFCCF8091B900887F883011F0F0
:10196000803109F48FEF08950E94980C8091BC009B
:1019700084FDFCCF8091B900887F883F09F48FEF08
:1019800008959091BC0097FFFCCF8093BB000E940C
:10199000540C8091BC0087FFFCCF8091B900887FF8
:1019A000883121F0803411F0883209F48FEF0895E6
:1019B0000F931F93CF938C01C62F0E94540CC1111B
:1019C0000E94480C8091BC0087FFFCCF8091BB0037
:1019D000F80180838091B900887FCC2321F0803585
:1019E00021F48FEF02C08835E1F3CF911F910F9161
:1019F0000895CF93DF93D82FC62F0E94A50C8F3F59
:101A000079F48D2F880F0E94C10C8F3F49F48C2FE1
:101A10000E94C10C8F3F21F4DF91CF910C94B40C44
:101A2000DF91CF9108950F931F93CF93C82F8B0110
:101A30000E94A50C8F3F91F48C2F880F81600E942B
:101A4000C10C8F3F59F460E0C8010E94D80C8F3F51
:101A500029F4CF911F910F910C94B40CCF911F9149
:101A60000F910895FF920F931F93CF93DF93D82F79
:101A7000C62FF42E152F022F0E94A50C8F3FF9F4CC
:101A80008D2F880F0E94C10C8F3FC9F48C2F0E94AC
:101A9000C10C8F3FA1F4CF2DD12F0C0F1D2F111D85
:101AA0000C171D0739F4DF91CF911F910F91FF9013
:101AB0000C94B40C89910E94C10C8F3F89F3DF9183
:101AC000CF911F910F91FF900895CF92DF92EF92E7
:101AD000FF920F931F93CF93DF93C82FD62F7A01D6
:101AE000022F0E94A50C8F3FB1F5CC0F8C2F0E94C6
:101AF000C10C8F3F81F58D2F0E94C10C8F3F59F58E
:101B00000E94A50C8F3F39F58C2F81600E94C10C7B
:101B10008F3F09F510E0D0E0C0E0680181E0C81A0D
:101B2000D1080C171D0751F4DF91CF911F910F9130
:101B3000FF90EF90DF90CF900C94B40C61E0CC1646
:101B4000DD0609F460E0C7018C0F9D1F0E94D80CD0
:101B500021968F3F31F3DF91CF911F910F91FF902D
:101B6000EF90DF90CF900895009749F0019749F4E6
:101B700090E28091C100892B8093C100089590E884
:101B8000F8CF90E0F6CFCF93C42F209164002D7F43
:101B9000209364002091C10028612093C100880F28
:101BA000991FFC01EE58FD4F808191819093C500F3
:101BB0008093C400662321F081E090E00E94B40D80
:101BC000CC2329F090E080E0CF910C94B40DCF911C
:101BD0000895009751F0019751F480E29091C1006F
:101BE000809589238093C100089580E8F7CF80E035
:101BF000F5CF8093C60008958091C6000895809126
:101C0000C000881F8827881F08958091C00085FB29
:101C1000882780F90895CF93C82F0E94050E882346
:101C2000E1F3C093C600CF9108958091C00087FF73
:101C3000FCCF8091C60008950F931F93CF938C0122
:101C4000C0E0F801EC0FF11D8081811104C0CF913B
:101C50001F910F9108950E940B0ECF5FF2CF0F934B
:101C60001F93CF93DF93D62F8C01C0E0CD1739F0AF
:101C70000E94150EF80181938F01811107C08FEF2B
:101C80008C0FDF91CF911F910F910895CF5FEECF11
:101C9000EF92FF920F931F93CF93DF937C01D62F88
:101CA000C0E087010C0F111DCD1768F40E94150EBE
:101CB000F8018083982F9F7D21F08A3011F08D30BC
:101CC00071F40E940B0EF8011082C111C1508C2FCB
:101CD000DF91CF911F910F91FF90EF900895CC234A
:101CE00061F0883051F4C1500E940B0E80E20E94D6
:101CF0000B0E88E00E940B0ED4CF0E940B0ECF5F1C
:101D0000D0CF0F931F93CF93DF93FC01EB01C8015A
:101D1000821B930BBA016C1B7D0B0E94200FEC1BE6
:101D2000FD0B6E9FC0016F9F900D7E9F900D112443
:101D3000820F931FDF91CF911F910F910895982FDC
:101D400092959F708F702AE0929F800D11240895C4
:101D50006AE00E94140F8295807F890F0895019791
:101D600008F4089520EA3FE0000021503109E1F72E
:101D7000F6CF019728F00000000000000000F9CF26
:101D80000895A8950895E0E6F0E08081886080835A
:101D90000895A89584B7877F84BFE0E6F0E080814E
:101DA000877E90819861908380830895E0E6F0E0DB
:101DB0008081806480830895E0E6F0E080818F7BFD
:101DC00080830895A895E0E6F0E02081982F977031
:101DD000287D922B880F880F8072892B90819861C3
:101DE00090838083089584B783FB882780F90895C2
:101DF0000F931F93CF938C01C62FA8950E94F30ECB
:101E0000882319F084B7877F84BFC8010E94E20E3F
:101E1000CC2339F00E94D60ECF911F910F910C94D4
:101E2000C30E0E94DC0EF8CF991B79E004C0991F05
:101E3000961708F0961B881F7A95C9F78095089524
:101E4000AA1BBB1B51E107C0AA1FBB1FA617B707E0
:101E500010F0A61BB70B881F991F5A95A9F78095FC
:101E60009095BC01CD01089548E954E00E94630FAC
:101E70000895FB01DC010D900020E9F71197019016
:101E80000D920020E1F70895FB01DC018D91019096
:101E900080190110D9F3990B0895FB01DC01019021
:101EA0000D920020E1F70895FB01DC014150504004
:101EB00048F001900D920020C9F701C01D924150D9
:101EC0005040E0F70895FA01A191B081009719F40C
:101ED0001097E1F0CD01DC01CD010D90002011F44F
:101EE000C00113C0FB012191222319F02015D9F75D
:101EF000F3CFFB012191201519F41E92119606C013
:101F00002223C1F70D900020A1F7D001FA01A1937F
:101F1000B0830895AEE0B0E0E0E9FFE00C94E8178C
:101F20000D891E898F89988D26E02C831A83098359
:101F300097FF02C080E090E801979E838D83AE01F9
:101F4000455E5F4F698D7A8DCE0101960E942C12FD
:101F50004D815E8157FD0AC02F8138854217530796
:101F60000CF49A01020F131FF80110822E96E4E080
:101F70000C940418AEE0B0E0E0ECFFE00C94EA173B
:101F800085E08C838B899C899A838983AE01495E25
:101F90005F4F6D897E89CE0101960E9491152E9624
:101FA000E2E00C9406185058BB27AA270E94EB0FBA
:101FB0000C9435110E94271138F00E942E1120F048
:101FC00039F49F3F19F426F40C9424110EF4E09593
:101FD000E7FB0C941E11E92F0E94461158F3BA1723
:101FE000620773078407950720F079F4A6F50C942F
:101FF00068110EF4E0950B2EBA2FA02D0B01B9013C
:1020000090010C01CA01A0011124FF27591B99F06E
:10201000593F50F4503E68F11A16F040A22F232F7A
:10202000342F4427585FF3CF469537952795A795CA
:10203000F0405395C9F77EF41F16BA0B620B730B71
:10204000840BBAF09150A1F0FF0FBB1F661F771FE2
:10205000881FC2F70EC0BA0F621F731F841F48F497
:10206000879577956795B795F7959E3F08F0B0CF20
:102070009395880F08F09927EE0F97958795089507
:102080000E9454100C9435110E942E1158F00E9499
:10209000271140F029F45F3F29F00C941E115111D3
:1020A0000C9469110C9424110E94461168F3992331
:1020B000B1F3552391F3951B550BBB27AA27621744
:1020C0007307840738F09F5F5F4F220F331F441F51
:1020D000AA1FA9F335D00E2E3AF0E0E832D0915085
:1020E0005040E695001CCAF72BD0FE2F29D0660F72
:1020F000771F881FBB1F261737074807AB07B0E8B5
:1021000009F0BB0B802DBF01FF2793585F4F3AF0BA
:102110009E3F510578F00C941E110C9469115F3F9D
:10212000E4F3983ED4F3869577956795B795F79540
:102130009F5FC9F7880F911D9695879597F9089528
:10214000E1E0660F771F881FBB1F621773078407C4
:10215000BA0720F0621B730B840BBA0BEE1F88F7D3
:10216000E09508950E944E1188F09F5798F0B92F7E
:102170009927B751B0F0E1F0660F771F881F991FBC
:102180001AF0BA95C9F714C0B13091F00E946811E5
:10219000B1E008950C946811672F782F8827B85FF5
:1021A00039F0B93FCCF3869577956795B395D9F714
:1021B0003EF490958095709561957F4F8F4F9F4F1E
:1021C0000895E89409C097FB3EF49095809570952A
:1021D00061957F4F8F4F9F4F9923A9F0F92F96E973
:1021E000BB279395F695879577956795B795F111E8
:1021F000F8CFFAF4BB0F11F460FF1BC06F5F7F4F85
:102200008F4F9F4F16C0882311F096E911C0772396
:1022100021F09EE8872F762F05C0662371F096E89F
:10222000862F70E060E02AF09A95660F771F881F6E
:10223000DAF7880F9695879597F9089597F99F672C
:1022400080E870E060E008959FEF80EC089500243E
:102250000A941616170618060906089500240A940B
:1022600012161306140605060895092E0394000C91
:1022700011F4882352F0BB0F40F4BF2B11F460FF20
:1022800004C06F5F7F4F8F4F9F4F089557FD905849
:10229000440F551F59F05F3F71F04795880F97FB2A
:1022A000991F61F09F3F79F08795089512161306E4
:1022B0001406551FF2CF4695F1DF08C01616170613
:1022C0001806991FF1CF8695710561050894089548
:1022D000E894BB2766277727CB0197F9089516F076
:1022E0000C94A2170C94241168940C941E110E9453
:1022F0004E11A8F39923C1F3AEF3DF93CF931F934D
:102300000F93FF92C92FDD2788232AF02197660FAC
:10231000771F881FDAF720E030E040E85FEB9FE3AB
:10232000883920F0803E38F021968F770E94D40FB4
:10233000E4E5F0E304C00E94D40FE1E8F0E30E947A
:10234000B0178B01BE01EC01FB2E6F57710975951B
:10235000771F880B990B0E94E31028E132E741E3D5
:102360005FE30E94D211AF2D9801AE01FF900F9153
:102370001F91CF91DF910E94EB0F0C9435110E94B9
:10238000D2110C9435110E94271138F00E942E11A1
:1023900020F0952311F00C941E110C94241111249B
:1023A0000C9469110E94461170F3959FC1F3950F2B
:1023B00050E0551F629FF001729FBB27F00DB11DC9
:1023C000639FAA27F00DB11DAA1F649F6627B00D59
:1023D000A11D661F829F2227B00DA11D621F739F42
:1023E000B00DA11D621F839FA00D611D221F749F50
:1023F0003327A00D611D231F849F600D211D822F97
:10240000762F6A2F11249F5750409AF0F1F08823BD
:102410004AF0EE0FFF1FBB1F661F771F881F9150EA
:102420005040A9F79E3F510580F00C941E110C946A
:1024300069115F3FE4F3983ED4F3869577956795ED
:10244000B795F795E7959F5FC1F7FE2B880F911D14
:102450009695879597F90895ABE0B0E0E2E3F2E155
:102460000C94DA177C013B018A01FC011782168269
:10247000838181FFC8C1CE0101965C01F701938180
:10248000F30193FD859193FF81913F01882309F426
:1024900053C1853239F493FD859193FF81913F01BA
:1024A000853229F4B70190E00E94FC16E7CF912C09
:1024B000212C312CFFE1F31538F08B3211F190F41F
:1024C000803209F1833229F137FC3CC020ED280F1E
:1024D0002A3050F536FE20C08AE0989E200D112447
:1024E000922E06C08D3291F0803371F7689430F8E7
:1024F000F30193FD859193FF81913F018111DACF23
:1025000021C0689431F8689432F8F2CF689433F8B7
:10251000EFCF689434F8ECCFEAE02E9E200D112422
:10252000222E689435F8E4CF8E3229F436FC04C1AB
:10253000689436F8DDCF8C3619F4689437F8D8CF24
:102540008836B1F2982F9F7D95549330E0F0833612
:10255000A1F18337C1F1833509F063C02801F2E0AE
:102560004F0E511CF801C080D180692D70E036FCFF
:1025700002C06FEF7FEFC6010E94AA164C0168945B
:1025800037F882010AC00C5F1F4FFFE3F9838824EC
:102590008394912C6501E89437F833FE2DC0522CBA
:1025A0008114910471F5552009F468CFB70180E2D8
:1025B00090E00E94FC165A94F6CFF801808189833E
:1025C0000E5F1F4FE4CF2801F2E04F0E511CF801BF
:1025D000C080D180692D70E036FC02C06FEF7FEFC4
:1025E000C6010E94B5164C018201D5CFB70180E229
:1025F00090E00E94FC162A942814190409F0B0F700
:10260000CECFF60137FC859137FE81916F01B7017E
:1026100090E00E94FC1651105A94F1E08F1A910834
:10262000BFCF843619F0893609F077C0F80137FE3C
:102630006BC060817181828193810C5F1F4FF32D8C
:10264000FF763F2E97FF09C0909580957095619514
:102650007F4F8F4F9F4F689437F82AE030E0A501F5
:102660000E944417C82ECA188C2C432C36FE0CC06E
:10267000E89440F8C91440F434FE05C032FC03C0AD
:10268000F32DFE7E4F2E892C44FE95C0FE01EC0DED
:10269000F11D8081803309F087C0242D297E422ED0
:1026A000842D8870582E43FC95C040FE8FC09C2C12
:1026B000821418F42C0C922C981844FE91C0B70187
:1026C00080E390E00E94FC1642FE09C088E790E09B
:1026D00041FE02C088E590E0B7010E94FC16C914D3
:1026E00008F48AC0CA94D12C9FEFC91AD90ACA0C1F
:1026F000DB1CF60182916F01B70190E00E94FC168D
:10270000AC14BD04B1F74FCF60817181072E000C6E
:10271000880B990B0E5F1F4F92CFD32CE894D4F8FF
:102720002AE030E0853739F1232D297FD22E8F36EC
:1027300001F148F48835A9F0F701868197812B963D
:10274000E2E10C94F617803749F08837A9F7D4FEF8
:1027500002C06894D2F820E130E00DC06894D4F84B
:10276000F6CF34FE03C0822F8660D82E20E132E0FF
:1027700002C028E030E0F801D7FE0FC0608171810F
:10278000828193810C5F1F4FA5010E944417C82EC0
:10279000CA183D2CE89437F867CF6081718190E0CA
:1027A00080E00E5F1F4FF0CF42FC02C0839478CFD1
:1027B0008394839475CF842D867809F471CFF6CFF6
:1027C000B70180E290E00E94FC1683948214C0F36B
:1027D000512C73CF522C5818821408F46ECFF8CFB6
:1027E000842D867809F47BCF8BE241FE80E247FCA2
:1027F0008DE2B70190E071CFB70180E390E00E94D5
:10280000FC169A946CCF8FEF9FEF99CF20FD09C0F3
:10281000FC0123FD05C022FF02C073836283518344
:102820004083089544FD17C046FD1DC0DB01FC0137
:10283000AA0FBB1FEE1FFF1F1094D1F76A0F7B1F5B
:102840008E1F9F1F660F771F881F991F620F711DB4
:10285000811D911D089533E0660F771F881F991F12
:102860003150D1F7F3CF34E0F7CF0F931F93CF93CD
:10287000DF938C01C8010E94C016EC0197FD08C0CF
:102880000E949616892BB1F7B801CE010E942C1731
:10289000CE01DF91CF911F910F9108958F929F925A
:1028A000AF92BF92EF92FF920F931F93CF93DF935C
:1028B0008C01D62F7A01B22E0E94C0169C013327BC
:1028C0002B32310529F02D323105A9F46894B7F87F
:1028D000D15061F480E0DF91CF911F910F91FF9073
:1028E000EF90BF90AF909F908F900895C8010E9485
:1028F000C01697FDEFCFCB2DCD7F2B2D2073F9F494
:102900008033E9F4AA24AA94AD0E89F0C8010E948C
:10291000C01697FD0CC0282F2F7D283561F4C264A6
:10292000D25029F0C8010E94C01697FF08C0812C20
:10293000912C54011BC0B6FE2BC0C260DA2D812C35
:10294000912C540120ED280F283028F1C4FD09C036
:102950002A3008F1C6FF05C02F7D3FEE320F36301A
:10296000C8F0B8010E942C17C1FFB4CFC7FF08C040
:10297000B094A09490948094811C911CA11CB11CD3
:102980002C2FB501A401C7010E94061481E0A3CF3A
:10299000C261D4CF27504C2FC501B4010E9412143C
:1029A0004B015C01C260D15009F3C8010E94C016FE
:1029B00097FFC8CFD9CFA0E2B0E0E1EEF4E10C94EC
:1029C000DF175C01962E7A01CE0101966C0180E240
:1029D000F60111928A95E9F7F501B381890130E09A
:1029E00020E0712C812CA0E041E050E0F801B3FD23
:1029F0008591B3FF8191982F8F01811107C010E05D
:102A000000E0C801A096EDE00C94FB178E3519F498
:102A10002115310541F1A21713064CF48D3549F10A
:102A20008D3229F4811006C0882483941DC088202B
:102A300009F464C0E92FE695E695E695EC0DFD2DC9
:102A4000F11D892F8770BA0101C0660F8A95EAF7D8
:102A50008081682B6083791651F0971510F49F5F81
:102A6000E9CF9150E7CFA1E02F5F3F4FBFCF812C3F
:102A7000FBCF882019F08E8180628E83AA2359F0C3
:102A8000F6019E012F5D3F4F8081809580833196B6
:102A9000E217F307C9F788248394C5010E94C01682
:102AA00097FD16C0E82FE695E695E695EC0DFD2D11
:102AB000F11D208130E0AC014770552702C03595EB
:102AC00027954A95E2F720FD06C0B5010E942C1714
:102AD000882069F094CFE114F10429F0F701808394
:102AE000C70101967C019A94812C9110D6CFE114F4
:102AF000F10409F486CFF701108283CFE82FE69521
:102B0000E695E695EC0DFD2DF11D982F9770BA0115
:102B100001C0660F9A95EAF79081692B6083782E41
:102B2000A3CFB0E0A0E0E7E9F5E10C94DD176C017C
:102B3000EB015A01FC0117821682512CF601E38049
:102B4000FE01E3FC8591E3FE8191182FEF018823BC
:102B5000E9F090E00E949616892B21F0C6010E94B0
:102B60003514ECCF153241F4FE01E3FC1591E3FE80
:102B70001191EF01153269F4C6010E94C01697FD4C
:102B80008EC01817D9F2B6010E942C17852D90E03F
:102B90008AC000E01A3231F4E3FC1591E3FE119192
:102BA000EF0101E0F12C20ED210F2A3048F101FF67
:102BB00037C0FF2059F31836B1F11C3609F43DC077
:102BC000112321F3612F70E082E290E30E949F16AF
:102BD000892BE1F2912C812C00FD06C0F50180804B
:102BE0009180C50102965C011E3679F5F601468199
:102BF000578170E060E0202FC4010E9406149ECF30
:102C000002606F2D70E090E080E040E20E941214BC
:102C1000F62EFE01E3FC1591E3FE1191EF01C3CF07
:102C2000FF24FA94C8CFFE01E3FC1591E3FE119155
:102C3000EF01183609F0C4CF08600460FE01E3FC20
:102C40001591E3FE1191EF01BBCF1336C1F401FDE5
:102C500002C0FF24F394C6010E94C01697FD1FC056
:102C60008114910429F0F4018083C40101964C0180
:102C7000FA94F110F0CF00FD61CF53945FCF1B3574
:102C8000B9F49E01A4016F2DC6010E94DB14EC0172
:102C9000892B89F7F6018381807309F477CF8FEF51
:102CA0009FEF511073CFCDB7DEB7EFE00C94F9175B
:102CB000C6010E94351497FDF2CF1F36A9F130F4FA
:102CC000143641F0193639F0006405C01337B9F0F5
:102CD0001537D1F70062202FA4016F2DC6010E9485
:102CE0004E148111C8CFD6CF8114910429F0F4017C
:102CF0006082C40101964C01FA94FF2071F0C60174
:102D00000E94C0163C0197FD08C00E949616892BB0
:102D100059F3B601C3010E942C178114910409F4E0
:102D2000AACFF4011082A7CF0061D5CF91110C94E6
:102D3000D717803219F089508550C8F70895FC01E3
:102D40000590061621F00020D9F7C00108953197AB
:102D5000CF010895FC010590615070400110D8F733
:102D6000809590958E0F9F1F0895FC0161507040D3
:102D700001900110D8F7809590958E0F9F1F0895B0
:102D8000CF93DF93EC012B8120FF1AC026FF0CC0EC
:102D90002F7B2B838E819F8101969F838E838A81D7
:102DA00090E0DF91CF91089522FF18C0E881F9816A
:102DB0008081082E000C990B009729F420622B8348
:102DC0008FEF9FEFEECF3196F983E8832E813F811D
:102DD0002F5F3F4F3F832E839927E3CFEA85FB8503
:102DE000099597FFF3CF2B81019621F080E2822B8A
:102DF0008B83E6CF80E1FBCF0F931F93CF93DF93BD
:102E0000182F092FEB018B8181FD09C01FEF0FEFF8
:102E1000812F902FDF91CF911F910F91089582FF05
:102E200014C02E813F818C819D81281739073CF485
:102E3000E881F981CF0101969983888310838E817F
:102E40009F8101969F838E83E3CFE885F985812F4B
:102E50000995892BA1F3DACFFB01238120FF11C053
:102E600026FD0FC08F3F980771F082832F7D20646D
:102E7000238326813781215031093783268399277F
:102E800008958FEF9FEF0895FA01AA27283051F196
:102E9000203181F1E8946F936E7F6E5F7F4F8F4F8B
:102EA0009F4FAF4FB1E03ED0B4E03CD0670F781FEA
:102EB000891F9A1FA11D680F791F8A1F911DA11DCF
:102EC0006A0F711D811D911DA11D20D009F4689408
:102ED0003F912AE0269F11243019305D3193DEF6B0
:102EE000CF010895462F4770405D4193B3E00FD066
:102EF000C9F7F6CF462F4F70405D4A3318F0495D51
:102F000031FD4052419302D0A9F7EACFB4E0A69533
:102F10009795879577956795BA95C9F70097610555
:102F2000710508959B01AC010A2E069457954795AB
:102F300037952795BA95C9F7620F731F841F951FA0
:102F4000A01D08959F3F31F0915020F4879577950B
:102F50006795B795880F911D9695879597F9089570
:102F6000DF93CF931F930F93FF92EF92DF927B013A
:102F70008C01689406C0DA2EEF010E94D211FE0186
:102F8000E894A5912591359145915591A6F3EF01CE
:102F90000E94EB0FFE019701A801DA9469F7DF9018
:102FA000EF90FF900F911F91CF91DF910895992796
:102FB000882708952F923F924F925F926F927F924F
:102FC0008F929F92AF92BF92CF92DF92EF92FF9239
:102FD0000F931F93CF93DF93CDB7DEB7CA1BDB0BE5
:102FE0000FB6F894DEBF0FBECDBF09942A8839888A
:102FF00048885F846E847D848C849B84AA84B98491
:10300000C884DF80EE80FD800C811B81AA81B9819C
:10301000CE0FD11D0FB6F894DEBF0FBECDBFED01B0
:1030200008956364696E6F70737578585B0013E080
:10303000A0E0B1E0EEEAF0E302C005900D92A73AFD
:10304000B107D9F724E0A7EAB3E001C01D92AA397D
:04305000B207E1F7EB
:1030540008000000BE922449123EABAAAA2ABECDA3
:10306400CCCC4C3E00000080BEABAAAAAA3E000015
:103074000000BF000000803F00000000000841780D
:10308400D3BB4387D1133D190E3CC3BD4282AD2B44
:103094003E68EC8276BED98FE1A93E4C80EFFFBE3C
:0A30A40001C4FF7F3F0000000000A0
:1030AE000A0D41565220425350205465726D696E7E
:1030BE00616C0A0D0A0D4350553A2041546D6567F7
:1030CE0061333238500A0D436C6F636B3A203136E0
:1030DE004D487A0A0D466C6173683A2033324B4282
:1030EE000A0D5352414D3A20324B420A0D4545507E
:1030FE00524F4D3A20314B420A0D0A0D3E20000030
:10310E00000000005E000001270102000100020025
:10311E0003230026002900240027002A002500286A
:10312E00002B000200020200036B006C006D000118
:10313E00024C00207C207C04054C5F06055F004C91
:10314E0000200307045F0007044C0006022003075B
:10315E00054C00070520030101010101011F001F9D
:10316E00101010101010001F0101010101010001CB
:10317E00010101010101001F00000000001F001FDE
:10318E0001010101011F001F000000000000001FCF
:10319E0010101010101F00020000020001020002A9
:1031AE0002000302000402000502000602000700EE
:1031BE0000000000010000020000030000040000F7
:1031CE0005010000010001010002010003010004DD
:1031DE0001000552024C0289008B00200840040EAB
:1031EE003500360037006E006F00700048008A0010
:1031FE00B30047008800B40046008400B2004500CA
:10320E008100B10044008000B000480C01000501AF
:10321E000004A001CF006700330019000800736599
:10322E0074006765740073746F7265006C6F61640F
:10323E00000A0D496E76616C696420636F6D6D6175
:10324E006E642E000A0D3E2000436F6E74726F6C1A
:10325E00205465726D696E616C0056657273696F8C
:10326E006E20312E302E300054656D703A2025645C
:10327E002043004C696768743A2025336425250085
:10328E000A0D54696D652D6F7574207265736574C2
:10329E00210A0D545749205374617475733A2030C6
:1032AE0078253032580A0D000A0D496E76616C6928
:1032BE0064206E756D626572206F6620617267752F
:1032CE006D656E7473210074696D6500253032680A
:1032DE0068643A2530326868643A2530326868642A
:1032EE00000A0D52544320686173206265656E209A
:1032FE00646973636F6E6E65637465642E000A0D88
:10330E00496E76616C6964207661726961626C6582
:10331E00210074656D7000256420C2BA43006C698B
:10332E006768740025642525000A0D54696D6520B3
:10333E0073746F7265642E000A0D54696D65206C8E
:07334E006F616465642E004D
:0400000300000B38B6
:00000001FF
